{
  "_format": "hh-sol-artifact-1",
  "contractName": "Keyo",
  "sourceName": "contracts/keyo.sol",
  "abi": [
    {
      "inputs": [],
      "stateMutability": "nonpayable",
      "type": "constructor"
    },
    {
      "anonymous": false,
      "inputs": [
        {
          "indexed": true,
          "internalType": "address",
          "name": "owner",
          "type": "address"
        },
        {
          "indexed": true,
          "internalType": "address",
          "name": "approved",
          "type": "address"
        },
        {
          "indexed": true,
          "internalType": "uint256",
          "name": "tokenId",
          "type": "uint256"
        }
      ],
      "name": "Approval",
      "type": "event"
    },
    {
      "anonymous": false,
      "inputs": [
        {
          "indexed": true,
          "internalType": "address",
          "name": "owner",
          "type": "address"
        },
        {
          "indexed": true,
          "internalType": "address",
          "name": "operator",
          "type": "address"
        },
        {
          "indexed": false,
          "internalType": "bool",
          "name": "approved",
          "type": "bool"
        }
      ],
      "name": "ApprovalForAll",
      "type": "event"
    },
    {
      "anonymous": false,
      "inputs": [
        {
          "indexed": true,
          "internalType": "address",
          "name": "previousOwner",
          "type": "address"
        },
        {
          "indexed": true,
          "internalType": "address",
          "name": "newOwner",
          "type": "address"
        }
      ],
      "name": "OwnershipTransferred",
      "type": "event"
    },
    {
      "anonymous": false,
      "inputs": [
        {
          "indexed": false,
          "internalType": "address",
          "name": "account",
          "type": "address"
        }
      ],
      "name": "Paused",
      "type": "event"
    },
    {
      "anonymous": false,
      "inputs": [
        {
          "indexed": true,
          "internalType": "address",
          "name": "from",
          "type": "address"
        },
        {
          "indexed": true,
          "internalType": "address",
          "name": "to",
          "type": "address"
        },
        {
          "indexed": true,
          "internalType": "uint256",
          "name": "tokenId",
          "type": "uint256"
        }
      ],
      "name": "Transfer",
      "type": "event"
    },
    {
      "anonymous": false,
      "inputs": [
        {
          "indexed": false,
          "internalType": "address",
          "name": "account",
          "type": "address"
        }
      ],
      "name": "Unpaused",
      "type": "event"
    },
    {
      "inputs": [],
      "name": "INCREMENT_PRICE",
      "outputs": [
        {
          "internalType": "uint256",
          "name": "",
          "type": "uint256"
        }
      ],
      "stateMutability": "view",
      "type": "function"
    },
    {
      "inputs": [
        {
          "internalType": "address",
          "name": "to",
          "type": "address"
        },
        {
          "internalType": "uint256",
          "name": "tokenId",
          "type": "uint256"
        }
      ],
      "name": "approve",
      "outputs": [],
      "stateMutability": "nonpayable",
      "type": "function"
    },
    {
      "inputs": [
        {
          "internalType": "address",
          "name": "owner",
          "type": "address"
        }
      ],
      "name": "balanceOf",
      "outputs": [
        {
          "internalType": "uint256",
          "name": "",
          "type": "uint256"
        }
      ],
      "stateMutability": "view",
      "type": "function"
    },
    {
      "inputs": [],
      "name": "currentPrice",
      "outputs": [
        {
          "internalType": "uint256",
          "name": "",
          "type": "uint256"
        }
      ],
      "stateMutability": "view",
      "type": "function"
    },
    {
      "inputs": [
        {
          "internalType": "uint256",
          "name": "tokenId",
          "type": "uint256"
        }
      ],
      "name": "getApproved",
      "outputs": [
        {
          "internalType": "address",
          "name": "",
          "type": "address"
        }
      ],
      "stateMutability": "view",
      "type": "function"
    },
    {
      "inputs": [
        {
          "internalType": "address",
          "name": "owner",
          "type": "address"
        },
        {
          "internalType": "address",
          "name": "operator",
          "type": "address"
        }
      ],
      "name": "isApprovedForAll",
      "outputs": [
        {
          "internalType": "bool",
          "name": "",
          "type": "bool"
        }
      ],
      "stateMutability": "view",
      "type": "function"
    },
    {
      "inputs": [],
      "name": "name",
      "outputs": [
        {
          "internalType": "string",
          "name": "",
          "type": "string"
        }
      ],
      "stateMutability": "view",
      "type": "function"
    },
    {
      "inputs": [],
      "name": "owner",
      "outputs": [
        {
          "internalType": "address",
          "name": "",
          "type": "address"
        }
      ],
      "stateMutability": "view",
      "type": "function"
    },
    {
      "inputs": [
        {
          "internalType": "uint256",
          "name": "tokenId",
          "type": "uint256"
        }
      ],
      "name": "ownerOf",
      "outputs": [
        {
          "internalType": "address",
          "name": "",
          "type": "address"
        }
      ],
      "stateMutability": "view",
      "type": "function"
    },
    {
      "inputs": [],
      "name": "pause",
      "outputs": [],
      "stateMutability": "nonpayable",
      "type": "function"
    },
    {
      "inputs": [],
      "name": "paused",
      "outputs": [
        {
          "internalType": "bool",
          "name": "",
          "type": "bool"
        }
      ],
      "stateMutability": "view",
      "type": "function"
    },
    {
      "inputs": [],
      "name": "renounceOwnership",
      "outputs": [],
      "stateMutability": "nonpayable",
      "type": "function"
    },
    {
      "inputs": [
        {
          "internalType": "bytes32",
          "name": "_hash",
          "type": "bytes32"
        },
        {
          "internalType": "string",
          "name": "_name",
          "type": "string"
        },
        {
          "internalType": "string",
          "name": "_image",
          "type": "string"
        },
        {
          "internalType": "bytes",
          "name": "_signature",
          "type": "bytes"
        },
        {
          "internalType": "bool",
          "name": "isNew",
          "type": "bool"
        }
      ],
      "name": "safeMint",
      "outputs": [],
      "stateMutability": "payable",
      "type": "function"
    },
    {
      "inputs": [
        {
          "internalType": "address",
          "name": "from",
          "type": "address"
        },
        {
          "internalType": "address",
          "name": "to",
          "type": "address"
        },
        {
          "internalType": "uint256",
          "name": "tokenId",
          "type": "uint256"
        }
      ],
      "name": "safeTransferFrom",
      "outputs": [],
      "stateMutability": "nonpayable",
      "type": "function"
    },
    {
      "inputs": [
        {
          "internalType": "address",
          "name": "from",
          "type": "address"
        },
        {
          "internalType": "address",
          "name": "to",
          "type": "address"
        },
        {
          "internalType": "uint256",
          "name": "tokenId",
          "type": "uint256"
        },
        {
          "internalType": "bytes",
          "name": "data",
          "type": "bytes"
        }
      ],
      "name": "safeTransferFrom",
      "outputs": [],
      "stateMutability": "nonpayable",
      "type": "function"
    },
    {
      "inputs": [
        {
          "internalType": "address",
          "name": "operator",
          "type": "address"
        },
        {
          "internalType": "bool",
          "name": "approved",
          "type": "bool"
        }
      ],
      "name": "setApprovalForAll",
      "outputs": [],
      "stateMutability": "nonpayable",
      "type": "function"
    },
    {
      "inputs": [
        {
          "internalType": "bytes4",
          "name": "interfaceId",
          "type": "bytes4"
        }
      ],
      "name": "supportsInterface",
      "outputs": [
        {
          "internalType": "bool",
          "name": "",
          "type": "bool"
        }
      ],
      "stateMutability": "view",
      "type": "function"
    },
    {
      "inputs": [],
      "name": "symbol",
      "outputs": [
        {
          "internalType": "string",
          "name": "",
          "type": "string"
        }
      ],
      "stateMutability": "view",
      "type": "function"
    },
    {
      "inputs": [
        {
          "internalType": "uint256",
          "name": "index",
          "type": "uint256"
        }
      ],
      "name": "tokenByIndex",
      "outputs": [
        {
          "internalType": "uint256",
          "name": "",
          "type": "uint256"
        }
      ],
      "stateMutability": "view",
      "type": "function"
    },
    {
      "inputs": [
        {
          "internalType": "uint256",
          "name": "",
          "type": "uint256"
        }
      ],
      "name": "tokenIdToGame",
      "outputs": [
        {
          "internalType": "uint256",
          "name": "game",
          "type": "uint256"
        },
        {
          "internalType": "uint256",
          "name": "rank",
          "type": "uint256"
        },
        {
          "internalType": "string",
          "name": "name",
          "type": "string"
        },
        {
          "internalType": "string",
          "name": "image",
          "type": "string"
        }
      ],
      "stateMutability": "view",
      "type": "function"
    },
    {
      "inputs": [
        {
          "internalType": "address",
          "name": "owner",
          "type": "address"
        },
        {
          "internalType": "uint256",
          "name": "index",
          "type": "uint256"
        }
      ],
      "name": "tokenOfOwnerByIndex",
      "outputs": [
        {
          "internalType": "uint256",
          "name": "",
          "type": "uint256"
        }
      ],
      "stateMutability": "view",
      "type": "function"
    },
    {
      "inputs": [
        {
          "internalType": "uint256",
          "name": "tokenId",
          "type": "uint256"
        }
      ],
      "name": "tokenURI",
      "outputs": [
        {
          "internalType": "string",
          "name": "",
          "type": "string"
        }
      ],
      "stateMutability": "view",
      "type": "function"
    },
    {
      "inputs": [],
      "name": "totalSupply",
      "outputs": [
        {
          "internalType": "uint256",
          "name": "",
          "type": "uint256"
        }
      ],
      "stateMutability": "view",
      "type": "function"
    },
    {
      "inputs": [
        {
          "internalType": "address",
          "name": "from",
          "type": "address"
        },
        {
          "internalType": "address",
          "name": "to",
          "type": "address"
        },
        {
          "internalType": "uint256",
          "name": "tokenId",
          "type": "uint256"
        }
      ],
      "name": "transferFrom",
      "outputs": [],
      "stateMutability": "nonpayable",
      "type": "function"
    },
    {
      "inputs": [
        {
          "internalType": "address",
          "name": "newOwner",
          "type": "address"
        }
      ],
      "name": "transferOwnership",
      "outputs": [],
      "stateMutability": "nonpayable",
      "type": "function"
    },
    {
      "inputs": [],
      "name": "unpause",
      "outputs": [],
      "stateMutability": "nonpayable",
      "type": "function"
    },
    {
      "inputs": [
        {
          "internalType": "bytes",
          "name": "",
          "type": "bytes"
        }
      ],
      "name": "usedSignatures",
      "outputs": [
        {
          "internalType": "uint8",
          "name": "",
          "type": "uint8"
        }
      ],
      "stateMutability": "view",
      "type": "function"
    },
    {
      "inputs": [],
      "name": "withdraw",
      "outputs": [],
      "stateMutability": "nonpayable",
      "type": "function"
    }
  ],
  "bytecode": "0x6080604052662386f26fc100006010553480156200001c57600080fd5b506040518060400160405280600481526020017f4b65796f000000000000000000000000000000000000000000000000000000008152506040518060400160405280600381526020017f4b594f00000000000000000000000000000000000000000000000000000000008152508160009080519060200190620000a1929190620001f6565b508060019080519060200190620000ba929190620001f6565b5050506000600a60006101000a81548160ff021916908315150217905550620000f8620000ec6200012860201b60201c565b6200013060201b60201c565b600e600090806001815401808255809150506001900390600052602060002001600090919091909150556200030b565b600033905090565b6000600a60019054906101000a900473ffffffffffffffffffffffffffffffffffffffff16905081600a60016101000a81548173ffffffffffffffffffffffffffffffffffffffff021916908373ffffffffffffffffffffffffffffffffffffffff1602179055508173ffffffffffffffffffffffffffffffffffffffff168173ffffffffffffffffffffffffffffffffffffffff167f8be0079c531659141344cd1fd0a4f28419497f9722a3daafe3b4186f6b6457e060405160405180910390a35050565b8280546200020490620002d5565b90600052602060002090601f01602090048101928262000228576000855562000274565b82601f106200024357805160ff191683800117855562000274565b8280016001018555821562000274579182015b828111156200027357825182559160200191906001019062000256565b5b50905062000283919062000287565b5090565b5b80821115620002a257600081600090555060010162000288565b5090565b7f4e487b7100000000000000000000000000000000000000000000000000000000600052602260045260246000fd5b60006002820490506001821680620002ee57607f821691505b60208210811415620003055762000304620002a6565b5b50919050565b614e86806200031b6000396000f3fe6080604052600436106101b75760003560e01c806370a08231116100ec578063a2e8638a1161008a578063e949580e11610064578063e949580e146105ee578063e985e9c51461062b578063f2fde38b14610668578063fcc8153314610691576101b7565b8063a2e8638a14610548578063b88d4fde14610588578063c87b56dd146105b1576101b7565b80638da5cb5b116100c65780638da5cb5b1461049e57806395d89b41146104c95780639d1b464a146104f4578063a22cb4651461051f576101b7565b806370a0823114610433578063715018a6146104705780638456cb5914610487576101b7565b80632f745c591161015957806342842e0e1161013357806342842e0e146103655780634f6ccce71461038e5780635c975abb146103cb5780636352211e146103f6576101b7565b80632f745c59146102fa5780633ccfd60b146103375780633f4ba83a1461034e576101b7565b8063095ea7b311610195578063095ea7b3146102615780630b97699c1461028a57806318160ddd146102a657806323b872dd146102d1576101b7565b806301ffc9a7146101bc57806306fdde03146101f9578063081812fc14610224575b600080fd5b3480156101c857600080fd5b506101e360048036038101906101de9190612f1a565b6106bc565b6040516101f09190612f62565b60405180910390f35b34801561020557600080fd5b5061020e6106ce565b60405161021b9190613016565b60405180910390f35b34801561023057600080fd5b5061024b6004803603810190610246919061306e565b610760565b60405161025891906130dc565b60405180910390f35b34801561026d57600080fd5b5061028860048036038101906102839190613123565b6107a6565b005b6102a4600480360381019061029f919061339b565b6108be565b005b3480156102b257600080fd5b506102bb610b66565b6040516102c89190613479565b60405180910390f35b3480156102dd57600080fd5b506102f860048036038101906102f39190613494565b610b73565b005b34801561030657600080fd5b50610321600480360381019061031c9190613123565b610bd3565b60405161032e9190613479565b60405180910390f35b34801561034357600080fd5b5061034c610c78565b005b34801561035a57600080fd5b50610363610d13565b005b34801561037157600080fd5b5061038c60048036038101906103879190613494565b610d25565b005b34801561039a57600080fd5b506103b560048036038101906103b0919061306e565b610d45565b6040516103c29190613479565b60405180910390f35b3480156103d757600080fd5b506103e0610db6565b6040516103ed9190612f62565b60405180910390f35b34801561040257600080fd5b5061041d6004803603810190610418919061306e565b610dcd565b60405161042a91906130dc565b60405180910390f35b34801561043f57600080fd5b5061045a600480360381019061045591906134e7565b610e7f565b6040516104679190613479565b60405180910390f35b34801561047c57600080fd5b50610485610f37565b005b34801561049357600080fd5b5061049c610f4b565b005b3480156104aa57600080fd5b506104b3610f5d565b6040516104c091906130dc565b60405180910390f35b3480156104d557600080fd5b506104de610f87565b6040516104eb9190613016565b60405180910390f35b34801561050057600080fd5b50610509611019565b6040516105169190613479565b60405180910390f35b34801561052b57600080fd5b5061054660048036038101906105419190613514565b611069565b005b34801561055457600080fd5b5061056f600480360381019061056a919061306e565b61107f565b60405161057f9493929190613554565b60405180910390f35b34801561059457600080fd5b506105af60048036038101906105aa91906135a7565b6111bf565b005b3480156105bd57600080fd5b506105d860048036038101906105d3919061306e565b611221565b6040516105e59190613016565b60405180910390f35b3480156105fa57600080fd5b506106156004803603810190610610919061362a565b61135a565b604051610622919061368f565b60405180910390f35b34801561063757600080fd5b50610652600480360381019061064d91906136aa565b611390565b60405161065f9190612f62565b60405180910390f35b34801561067457600080fd5b5061068f600480360381019061068a91906134e7565b611424565b005b34801561069d57600080fd5b506106a66114a8565b6040516106b39190613479565b60405180910390f35b60006106c7826114ae565b9050919050565b6060600080546106dd90613719565b80601f016020809104026020016040519081016040528092919081815260200182805461070990613719565b80156107565780601f1061072b57610100808354040283529160200191610756565b820191906000526020600020905b81548152906001019060200180831161073957829003601f168201915b5050505050905090565b600061076b82611528565b6004600083815260200190815260200160002060009054906101000a900473ffffffffffffffffffffffffffffffffffffffff169050919050565b60006107b182610dcd565b90508073ffffffffffffffffffffffffffffffffffffffff168373ffffffffffffffffffffffffffffffffffffffff161415610822576040517f08c379a0000000000000000000000000000000000000000000000000000000008152600401610819906137bd565b60405180910390fd5b8073ffffffffffffffffffffffffffffffffffffffff16610841611573565b73ffffffffffffffffffffffffffffffffffffffff161480610870575061086f8161086a611573565b611390565b5b6108af576040517f08c379a00000000000000000000000000000000000000000000000000000000081526004016108a69061384f565b60405180910390fd5b6108b9838361157b565b505050565b6108c6610f5d565b73ffffffffffffffffffffffffffffffffffffffff166108ee6108e887611634565b84611664565b73ffffffffffffffffffffffffffffffffffffffff1614610944576040517f08c379a000000000000000000000000000000000000000000000000000000000815260040161093b906138e1565b60405180910390fd5b6000600c836040516109569190613948565b908152602001604051809103902060009054906101000a900460ff1660ff161461097f57600080fd5b610987611019565b3410156109c9576040517f08c379a00000000000000000000000000000000000000000000000000000000081526004016109c0906139ab565b60405180910390fd5b60006109d5600d61168b565b90506109e1600d611699565b8115610a1257600e600090806001815401808255809150506001900390600052602060002001600090919091909150555b600e6001600e80549050610a2691906139fa565b81548110610a3757610a36613a2e565b5b906000526020600020016000815480929190610a5290613a5d565b919050555060405180608001604052806001600e80549050610a7491906139fa565b8152602001600e6001600e80549050610a8d91906139fa565b81548110610a9e57610a9d613a2e565b5b9060005260206000200154815260200186815260200185815250600b600083815260200190815260200160002060008201518160000155602082015181600101556040820151816002019080519060200190610afb929190612e0b565b506060820151816003019080519060200190610b18929190612e0b565b509050506001600c84604051610b2e9190613948565b908152602001604051809103902060006101000a81548160ff021916908360ff160217905550610b5e33826116af565b505050505050565b6000600880549050905090565b610b84610b7e611573565b826116cd565b610bc3576040517f08c379a0000000000000000000000000000000000000000000000000000000008152600401610bba90613b18565b60405180910390fd5b610bce838383611762565b505050565b6000610bde83610e7f565b8210610c1f576040517f08c379a0000000000000000000000000000000000000000000000000000000008152600401610c1690613baa565b60405180910390fd5b600660008473ffffffffffffffffffffffffffffffffffffffff1673ffffffffffffffffffffffffffffffffffffffff168152602001908152602001600020600083815260200190815260200160002054905092915050565b610c806119c9565b60004711610cc3576040517f08c379a0000000000000000000000000000000000000000000000000000000008152600401610cba90613c16565b60405180910390fd5b610ccb610f5d565b73ffffffffffffffffffffffffffffffffffffffff166108fc479081150290604051600060405180830381858888f19350505050158015610d10573d6000803e3d6000fd5b50565b610d1b6119c9565b610d23611a47565b565b610d40838383604051806020016040528060008152506111bf565b505050565b6000610d4f610b66565b8210610d90576040517f08c379a0000000000000000000000000000000000000000000000000000000008152600401610d8790613ca8565b60405180910390fd5b60088281548110610da457610da3613a2e565b5b90600052602060002001549050919050565b6000600a60009054906101000a900460ff16905090565b6000806002600084815260200190815260200160002060009054906101000a900473ffffffffffffffffffffffffffffffffffffffff169050600073ffffffffffffffffffffffffffffffffffffffff168173ffffffffffffffffffffffffffffffffffffffff161415610e76576040517f08c379a0000000000000000000000000000000000000000000000000000000008152600401610e6d90613d14565b60405180910390fd5b80915050919050565b60008073ffffffffffffffffffffffffffffffffffffffff168273ffffffffffffffffffffffffffffffffffffffff161415610ef0576040517f08c379a0000000000000000000000000000000000000000000000000000000008152600401610ee790613da6565b60405180910390fd5b600360008373ffffffffffffffffffffffffffffffffffffffff1673ffffffffffffffffffffffffffffffffffffffff168152602001908152602001600020549050919050565b610f3f6119c9565b610f496000611aaa565b565b610f536119c9565b610f5b611b70565b565b6000600a60019054906101000a900473ffffffffffffffffffffffffffffffffffffffff16905090565b606060018054610f9690613719565b80601f0160208091040260200160405190810160405280929190818152602001828054610fc290613719565b801561100f5780601f10610fe45761010080835404028352916020019161100f565b820191906000526020600020905b815481529060010190602001808311610ff257829003601f168201915b5050505050905090565b6000600e6001600e8054905061102f91906139fa565b815481106110405761103f613a2e565b5b90600052602060002001546010546110589190613dc6565b60006110649190613e20565b905090565b61107b611074611573565b8383611bd3565b5050565b600b6020528060005260406000206000915090508060000154908060010154908060020180546110ae90613719565b80601f01602080910402602001604051908101604052809291908181526020018280546110da90613719565b80156111275780601f106110fc57610100808354040283529160200191611127565b820191906000526020600020905b81548152906001019060200180831161110a57829003601f168201915b50505050509080600301805461113c90613719565b80601f016020809104026020016040519081016040528092919081815260200182805461116890613719565b80156111b55780601f1061118a576101008083540402835291602001916111b5565b820191906000526020600020905b81548152906001019060200180831161119857829003601f168201915b5050505050905084565b6111d06111ca611573565b836116cd565b61120f576040517f08c379a000000000000000000000000000000000000000000000000000000000815260040161120690613b18565b60405180910390fd5b61121b84848484611d40565b50505050565b606061122c82611d9c565b61126b576040517f08c379a000000000000000000000000000000000000000000000000000000000815260040161126290613ee8565b60405180910390fd5b6000600b60008481526020019081526020016000206003016040516020016112939190613ff3565b60405160208183030381529060405290506000600b60008581526020019081526020016000206002016112c585611e08565b836112e5600b600089815260200190815260200160002060010154611e08565b611304600b60008a815260200190815260200160002060000154611e08565b604051602001611318959493929190614364565b604051602081830303815290604052905061133281611f69565b6040516020016113429190614474565b60405160208183030381529060405292505050919050565b600c818051602081018201805184825260208301602085012081835280955050505050506000915054906101000a900460ff1681565b6000600560008473ffffffffffffffffffffffffffffffffffffffff1673ffffffffffffffffffffffffffffffffffffffff16815260200190815260200160002060008373ffffffffffffffffffffffffffffffffffffffff1673ffffffffffffffffffffffffffffffffffffffff16815260200190815260200160002060009054906101000a900460ff16905092915050565b61142c6119c9565b600073ffffffffffffffffffffffffffffffffffffffff168173ffffffffffffffffffffffffffffffffffffffff16141561149c576040517f08c379a000000000000000000000000000000000000000000000000000000000815260040161149390614508565b60405180910390fd5b6114a581611aaa565b50565b60105481565b60007f780e9d63000000000000000000000000000000000000000000000000000000007bffffffffffffffffffffffffffffffffffffffffffffffffffffffff1916827bffffffffffffffffffffffffffffffffffffffffffffffffffffffff191614806115215750611520826120cd565b5b9050919050565b61153181611d9c565b611570576040517f08c379a000000000000000000000000000000000000000000000000000000000815260040161156790613d14565b60405180910390fd5b50565b600033905090565b816004600083815260200190815260200160002060006101000a81548173ffffffffffffffffffffffffffffffffffffffff021916908373ffffffffffffffffffffffffffffffffffffffff160217905550808273ffffffffffffffffffffffffffffffffffffffff166115ee83610dcd565b73ffffffffffffffffffffffffffffffffffffffff167f8c5be1e5ebec7d5bd14f71427d1e84f3dd0314c0f7b2291e5b200ac8c7c3b92560405160405180910390a45050565b6000816040516020016116479190614595565b604051602081830303815290604052805190602001209050919050565b600080600061167385856121af565b9150915061168081612201565b819250505092915050565b600081600001549050919050565b6001816000016000828254019250508190555050565b6116c98282604051806020016040528060008152506123d6565b5050565b6000806116d983610dcd565b90508073ffffffffffffffffffffffffffffffffffffffff168473ffffffffffffffffffffffffffffffffffffffff16148061171b575061171a8185611390565b5b8061175957508373ffffffffffffffffffffffffffffffffffffffff1661174184610760565b73ffffffffffffffffffffffffffffffffffffffff16145b91505092915050565b8273ffffffffffffffffffffffffffffffffffffffff1661178282610dcd565b73ffffffffffffffffffffffffffffffffffffffff16146117d8576040517f08c379a00000000000000000000000000000000000000000000000000000000081526004016117cf9061462d565b60405180910390fd5b600073ffffffffffffffffffffffffffffffffffffffff168273ffffffffffffffffffffffffffffffffffffffff161415611848576040517f08c379a000000000000000000000000000000000000000000000000000000000815260040161183f906146bf565b60405180910390fd5b611853838383612431565b61185e60008261157b565b6001600360008573ffffffffffffffffffffffffffffffffffffffff1673ffffffffffffffffffffffffffffffffffffffff16815260200190815260200160002060008282546118ae91906139fa565b925050819055506001600360008473ffffffffffffffffffffffffffffffffffffffff1673ffffffffffffffffffffffffffffffffffffffff16815260200190815260200160002060008282546119059190613e20565b92505081905550816002600083815260200190815260200160002060006101000a81548173ffffffffffffffffffffffffffffffffffffffff021916908373ffffffffffffffffffffffffffffffffffffffff160217905550808273ffffffffffffffffffffffffffffffffffffffff168473ffffffffffffffffffffffffffffffffffffffff167fddf252ad1be2c89b69c2b068fc378daa952ba7f163c4a11628f55a4df523b3ef60405160405180910390a46119c4838383612449565b505050565b6119d1611573565b73ffffffffffffffffffffffffffffffffffffffff166119ef610f5d565b73ffffffffffffffffffffffffffffffffffffffff1614611a45576040517f08c379a0000000000000000000000000000000000000000000000000000000008152600401611a3c9061472b565b60405180910390fd5b565b611a4f61244e565b6000600a60006101000a81548160ff0219169083151502179055507f5db9ee0a495bf2e6ff9c91a7834c1ba4fdd244a5e8aa4e537bd38aeae4b073aa611a93611573565b604051611aa091906130dc565b60405180910390a1565b6000600a60019054906101000a900473ffffffffffffffffffffffffffffffffffffffff16905081600a60016101000a81548173ffffffffffffffffffffffffffffffffffffffff021916908373ffffffffffffffffffffffffffffffffffffffff1602179055508173ffffffffffffffffffffffffffffffffffffffff168173ffffffffffffffffffffffffffffffffffffffff167f8be0079c531659141344cd1fd0a4f28419497f9722a3daafe3b4186f6b6457e060405160405180910390a35050565b611b78612497565b6001600a60006101000a81548160ff0219169083151502179055507f62e78cea01bee320cd4e420270b5ea74000d11b0c9f74754ebdbfc544b05a258611bbc611573565b604051611bc991906130dc565b60405180910390a1565b8173ffffffffffffffffffffffffffffffffffffffff168373ffffffffffffffffffffffffffffffffffffffff161415611c42576040517f08c379a0000000000000000000000000000000000000000000000000000000008152600401611c3990614797565b60405180910390fd5b80600560008573ffffffffffffffffffffffffffffffffffffffff1673ffffffffffffffffffffffffffffffffffffffff16815260200190815260200160002060008473ffffffffffffffffffffffffffffffffffffffff1673ffffffffffffffffffffffffffffffffffffffff16815260200190815260200160002060006101000a81548160ff0219169083151502179055508173ffffffffffffffffffffffffffffffffffffffff168373ffffffffffffffffffffffffffffffffffffffff167f17307eab39ab6107e8899845ad3d59bd9653f200f220920489ca2b5937696c3183604051611d339190612f62565b60405180910390a3505050565b611d4b848484611762565b611d57848484846124e1565b611d96576040517f08c379a0000000000000000000000000000000000000000000000000000000008152600401611d8d90614829565b60405180910390fd5b50505050565b60008073ffffffffffffffffffffffffffffffffffffffff166002600084815260200190815260200160002060009054906101000a900473ffffffffffffffffffffffffffffffffffffffff1673ffffffffffffffffffffffffffffffffffffffff1614159050919050565b60606000821415611e50576040518060400160405280600181526020017f30000000000000000000000000000000000000000000000000000000000000008152509050611f64565b600082905060005b60008214611e82578080611e6b90613a5d565b915050600a82611e7b9190614878565b9150611e58565b60008167ffffffffffffffff811115611e9e57611e9d6131a3565b5b6040519080825280601f01601f191660200182016040528015611ed05781602001600182028036833780820191505090505b5090505b60008514611f5d57600182611ee991906139fa565b9150600a85611ef891906148a9565b6030611f049190613e20565b60f81b818381518110611f1a57611f19613a2e565b5b60200101907effffffffffffffffffffffffffffffffffffffffffffffffffffffffffffff1916908160001a905350600a85611f569190614878565b9450611ed4565b8093505050505b919050565b6060600082511415611f8c576040518060200160405280600081525090506120c8565b6000604051806060016040528060408152602001614e116040913990506000600360028551611fbb9190613e20565b611fc59190614878565b6004611fd19190613dc6565b67ffffffffffffffff811115611fea57611fe96131a3565b5b6040519080825280601f01601f19166020018201604052801561201c5781602001600182028036833780820191505090505b509050600182016020820185865187015b80821015612088576003820191508151603f8160121c168501518453600184019350603f81600c1c168501518453600184019350603f8160061c168501518453600184019350603f811685015184536001840193505061202d565b50506003865106600181146120a457600281146120b7576120bf565b603d6001830353603d60028303536120bf565b603d60018303535b50505080925050505b919050565b60007f80ac58cd000000000000000000000000000000000000000000000000000000007bffffffffffffffffffffffffffffffffffffffffffffffffffffffff1916827bffffffffffffffffffffffffffffffffffffffffffffffffffffffff1916148061219857507f5b5e139f000000000000000000000000000000000000000000000000000000007bffffffffffffffffffffffffffffffffffffffffffffffffffffffff1916827bffffffffffffffffffffffffffffffffffffffffffffffffffffffff1916145b806121a857506121a782612678565b5b9050919050565b6000806041835114156121f15760008060006020860151925060408601519150606086015160001a90506121e5878285856126e2565b945094505050506121fa565b60006002915091505b9250929050565b60006004811115612215576122146148da565b5b816004811115612228576122276148da565b5b1415612233576123d3565b60016004811115612247576122466148da565b5b81600481111561225a576122596148da565b5b141561229b576040517f08c379a000000000000000000000000000000000000000000000000000000000815260040161229290614955565b60405180910390fd5b600260048111156122af576122ae6148da565b5b8160048111156122c2576122c16148da565b5b1415612303576040517f08c379a00000000000000000000000000000000000000000000000000000000081526004016122fa906149c1565b60405180910390fd5b60036004811115612317576123166148da565b5b81600481111561232a576123296148da565b5b141561236b576040517f08c379a000000000000000000000000000000000000000000000000000000000815260040161236290614a53565b60405180910390fd5b60048081111561237e5761237d6148da565b5b816004811115612391576123906148da565b5b14156123d2576040517f08c379a00000000000000000000000000000000000000000000000000000000081526004016123c990614ae5565b60405180910390fd5b5b50565b6123e083836127ef565b6123ed60008484846124e1565b61242c576040517f08c379a000000000000000000000000000000000000000000000000000000000815260040161242390614829565b60405180910390fd5b505050565b612439612497565b6124448383836129c9565b505050565b505050565b612456610db6565b612495576040517f08c379a000000000000000000000000000000000000000000000000000000000815260040161248c90614b51565b60405180910390fd5b565b61249f610db6565b156124df576040517f08c379a00000000000000000000000000000000000000000000000000000000081526004016124d690614bbd565b60405180910390fd5b565b60006125028473ffffffffffffffffffffffffffffffffffffffff16612add565b1561266b578373ffffffffffffffffffffffffffffffffffffffff1663150b7a0261252b611573565b8786866040518563ffffffff1660e01b815260040161254d9493929190614c27565b602060405180830381600087803b15801561256757600080fd5b505af192505050801561259857506040513d601f19601f820116820180604052508101906125959190614c88565b60015b61261b573d80600081146125c8576040519150601f19603f3d011682016040523d82523d6000602084013e6125cd565b606091505b50600081511415612613576040517f08c379a000000000000000000000000000000000000000000000000000000000815260040161260a90614829565b60405180910390fd5b805181602001fd5b63150b7a0260e01b7bffffffffffffffffffffffffffffffffffffffffffffffffffffffff1916817bffffffffffffffffffffffffffffffffffffffffffffffffffffffff191614915050612670565b600190505b949350505050565b60007f01ffc9a7000000000000000000000000000000000000000000000000000000007bffffffffffffffffffffffffffffffffffffffffffffffffffffffff1916827bffffffffffffffffffffffffffffffffffffffffffffffffffffffff1916149050919050565b6000807f7fffffffffffffffffffffffffffffff5d576e7357a4501ddfe92f46681b20a08360001c111561271d5760006003915091506127e6565b601b8560ff16141580156127355750601c8560ff1614155b156127475760006004915091506127e6565b60006001878787876040516000815260200160405260405161276c9493929190614cc4565b6020604051602081039080840390855afa15801561278e573d6000803e3d6000fd5b505050602060405103519050600073ffffffffffffffffffffffffffffffffffffffff168173ffffffffffffffffffffffffffffffffffffffff1614156127dd576000600192509250506127e6565b80600092509250505b94509492505050565b600073ffffffffffffffffffffffffffffffffffffffff168273ffffffffffffffffffffffffffffffffffffffff16141561285f576040517f08c379a000000000000000000000000000000000000000000000000000000000815260040161285690614d55565b60405180910390fd5b61286881611d9c565b156128a8576040517f08c379a000000000000000000000000000000000000000000000000000000000815260040161289f90614dc1565b60405180910390fd5b6128b460008383612431565b6001600360008473ffffffffffffffffffffffffffffffffffffffff1673ffffffffffffffffffffffffffffffffffffffff16815260200190815260200160002060008282546129049190613e20565b92505081905550816002600083815260200190815260200160002060006101000a81548173ffffffffffffffffffffffffffffffffffffffff021916908373ffffffffffffffffffffffffffffffffffffffff160217905550808273ffffffffffffffffffffffffffffffffffffffff16600073ffffffffffffffffffffffffffffffffffffffff167fddf252ad1be2c89b69c2b068fc378daa952ba7f163c4a11628f55a4df523b3ef60405160405180910390a46129c560008383612449565b5050565b6129d4838383612b00565b600073ffffffffffffffffffffffffffffffffffffffff168373ffffffffffffffffffffffffffffffffffffffff161415612a1757612a1281612b05565b612a56565b8173ffffffffffffffffffffffffffffffffffffffff168373ffffffffffffffffffffffffffffffffffffffff1614612a5557612a548382612b4e565b5b5b600073ffffffffffffffffffffffffffffffffffffffff168273ffffffffffffffffffffffffffffffffffffffff161415612a9957612a9481612cbb565b612ad8565b8273ffffffffffffffffffffffffffffffffffffffff168273ffffffffffffffffffffffffffffffffffffffff1614612ad757612ad68282612d8c565b5b5b505050565b6000808273ffffffffffffffffffffffffffffffffffffffff163b119050919050565b505050565b6008805490506009600083815260200190815260200160002081905550600881908060018154018082558091505060019003906000526020600020016000909190919091505550565b60006001612b5b84610e7f565b612b6591906139fa565b9050600060076000848152602001908152602001600020549050818114612c4a576000600660008673ffffffffffffffffffffffffffffffffffffffff1673ffffffffffffffffffffffffffffffffffffffff168152602001908152602001600020600084815260200190815260200160002054905080600660008773ffffffffffffffffffffffffffffffffffffffff1673ffffffffffffffffffffffffffffffffffffffff168152602001908152602001600020600084815260200190815260200160002081905550816007600083815260200190815260200160002081905550505b6007600084815260200190815260200160002060009055600660008573ffffffffffffffffffffffffffffffffffffffff1673ffffffffffffffffffffffffffffffffffffffff16815260200190815260200160002060008381526020019081526020016000206000905550505050565b60006001600880549050612ccf91906139fa565b9050600060096000848152602001908152602001600020549050600060088381548110612cff57612cfe613a2e565b5b906000526020600020015490508060088381548110612d2157612d20613a2e565b5b906000526020600020018190555081600960008381526020019081526020016000208190555060096000858152602001908152602001600020600090556008805480612d7057612d6f614de1565b5b6001900381819060005260206000200160009055905550505050565b6000612d9783610e7f565b905081600660008573ffffffffffffffffffffffffffffffffffffffff1673ffffffffffffffffffffffffffffffffffffffff168152602001908152602001600020600083815260200190815260200160002081905550806007600084815260200190815260200160002081905550505050565b828054612e1790613719565b90600052602060002090601f016020900481019282612e395760008555612e80565b82601f10612e5257805160ff1916838001178555612e80565b82800160010185558215612e80579182015b82811115612e7f578251825591602001919060010190612e64565b5b509050612e8d9190612e91565b5090565b5b80821115612eaa576000816000905550600101612e92565b5090565b6000604051905090565b600080fd5b600080fd5b60007fffffffff0000000000000000000000000000000000000000000000000000000082169050919050565b612ef781612ec2565b8114612f0257600080fd5b50565b600081359050612f1481612eee565b92915050565b600060208284031215612f3057612f2f612eb8565b5b6000612f3e84828501612f05565b91505092915050565b60008115159050919050565b612f5c81612f47565b82525050565b6000602082019050612f776000830184612f53565b92915050565b600081519050919050565b600082825260208201905092915050565b60005b83811015612fb7578082015181840152602081019050612f9c565b83811115612fc6576000848401525b50505050565b6000601f19601f8301169050919050565b6000612fe882612f7d565b612ff28185612f88565b9350613002818560208601612f99565b61300b81612fcc565b840191505092915050565b600060208201905081810360008301526130308184612fdd565b905092915050565b6000819050919050565b61304b81613038565b811461305657600080fd5b50565b60008135905061306881613042565b92915050565b60006020828403121561308457613083612eb8565b5b600061309284828501613059565b91505092915050565b600073ffffffffffffffffffffffffffffffffffffffff82169050919050565b60006130c68261309b565b9050919050565b6130d6816130bb565b82525050565b60006020820190506130f160008301846130cd565b92915050565b613100816130bb565b811461310b57600080fd5b50565b60008135905061311d816130f7565b92915050565b6000806040838503121561313a57613139612eb8565b5b60006131488582860161310e565b925050602061315985828601613059565b9150509250929050565b6000819050919050565b61317681613163565b811461318157600080fd5b50565b6000813590506131938161316d565b92915050565b600080fd5b600080fd5b7f4e487b7100000000000000000000000000000000000000000000000000000000600052604160045260246000fd5b6131db82612fcc565b810181811067ffffffffffffffff821117156131fa576131f96131a3565b5b80604052505050565b600061320d612eae565b905061321982826131d2565b919050565b600067ffffffffffffffff821115613239576132386131a3565b5b61324282612fcc565b9050602081019050919050565b82818337600083830152505050565b600061327161326c8461321e565b613203565b90508281526020810184848401111561328d5761328c61319e565b5b61329884828561324f565b509392505050565b600082601f8301126132b5576132b4613199565b5b81356132c584826020860161325e565b91505092915050565b600067ffffffffffffffff8211156132e9576132e86131a3565b5b6132f282612fcc565b9050602081019050919050565b600061331261330d846132ce565b613203565b90508281526020810184848401111561332e5761332d61319e565b5b61333984828561324f565b509392505050565b600082601f83011261335657613355613199565b5b81356133668482602086016132ff565b91505092915050565b61337881612f47565b811461338357600080fd5b50565b6000813590506133958161336f565b92915050565b600080600080600060a086880312156133b7576133b6612eb8565b5b60006133c588828901613184565b955050602086013567ffffffffffffffff8111156133e6576133e5612ebd565b5b6133f2888289016132a0565b945050604086013567ffffffffffffffff81111561341357613412612ebd565b5b61341f888289016132a0565b935050606086013567ffffffffffffffff8111156134405761343f612ebd565b5b61344c88828901613341565b925050608061345d88828901613386565b9150509295509295909350565b61347381613038565b82525050565b600060208201905061348e600083018461346a565b92915050565b6000806000606084860312156134ad576134ac612eb8565b5b60006134bb8682870161310e565b93505060206134cc8682870161310e565b92505060406134dd86828701613059565b9150509250925092565b6000602082840312156134fd576134fc612eb8565b5b600061350b8482850161310e565b91505092915050565b6000806040838503121561352b5761352a612eb8565b5b60006135398582860161310e565b925050602061354a85828601613386565b9150509250929050565b6000608082019050613569600083018761346a565b613576602083018661346a565b81810360408301526135888185612fdd565b9050818103606083015261359c8184612fdd565b905095945050505050565b600080600080608085870312156135c1576135c0612eb8565b5b60006135cf8782880161310e565b94505060206135e08782880161310e565b93505060406135f187828801613059565b925050606085013567ffffffffffffffff81111561361257613611612ebd565b5b61361e87828801613341565b91505092959194509250565b6000602082840312156136405761363f612eb8565b5b600082013567ffffffffffffffff81111561365e5761365d612ebd565b5b61366a84828501613341565b91505092915050565b600060ff82169050919050565b61368981613673565b82525050565b60006020820190506136a46000830184613680565b92915050565b600080604083850312156136c1576136c0612eb8565b5b60006136cf8582860161310e565b92505060206136e08582860161310e565b9150509250929050565b7f4e487b7100000000000000000000000000000000000000000000000000000000600052602260045260246000fd5b6000600282049050600182168061373157607f821691505b60208210811415613745576137446136ea565b5b50919050565b7f4552433732313a20617070726f76616c20746f2063757272656e74206f776e6560008201527f7200000000000000000000000000000000000000000000000000000000000000602082015250565b60006137a7602183612f88565b91506137b28261374b565b604082019050919050565b600060208201905081810360008301526137d68161379a565b9050919050565b7f4552433732313a20617070726f76652063616c6c6572206973206e6f7420746f60008201527f6b656e206f776e6572206e6f7220617070726f76656420666f7220616c6c0000602082015250565b6000613839603e83612f88565b9150613844826137dd565b604082019050919050565b600060208201905081810360008301526138688161382c565b9050919050565b7f5665726966696564207369676e617475726520646f6573206e6f74206d61746360008201527f68206f776e657273206164647265737300000000000000000000000000000000602082015250565b60006138cb603083612f88565b91506138d68261386f565b604082019050919050565b600060208201905081810360008301526138fa816138be565b9050919050565b600081519050919050565b600081905092915050565b600061392282613901565b61392c818561390c565b935061393c818560208601612f99565b80840191505092915050565b60006139548284613917565b915081905092915050565b7f4e6f7420656e6f7567682065746865722073656e742e00000000000000000000600082015250565b6000613995601683612f88565b91506139a08261395f565b602082019050919050565b600060208201905081810360008301526139c481613988565b9050919050565b7f4e487b7100000000000000000000000000000000000000000000000000000000600052601160045260246000fd5b6000613a0582613038565b9150613a1083613038565b925082821015613a2357613a226139cb565b5b828203905092915050565b7f4e487b7100000000000000000000000000000000000000000000000000000000600052603260045260246000fd5b6000613a6882613038565b91507fffffffffffffffffffffffffffffffffffffffffffffffffffffffffffffffff821415613a9b57613a9a6139cb565b5b600182019050919050565b7f4552433732313a2063616c6c6572206973206e6f7420746f6b656e206f776e6560008201527f72206e6f7220617070726f766564000000000000000000000000000000000000602082015250565b6000613b02602e83612f88565b9150613b0d82613aa6565b604082019050919050565b60006020820190508181036000830152613b3181613af5565b9050919050565b7f455243373231456e756d657261626c653a206f776e657220696e646578206f7560008201527f74206f6620626f756e6473000000000000000000000000000000000000000000602082015250565b6000613b94602b83612f88565b9150613b9f82613b38565b604082019050919050565b60006020820190508181036000830152613bc381613b87565b9050919050565b7f42616c616e6365206973207a65726f0000000000000000000000000000000000600082015250565b6000613c00600f83612f88565b9150613c0b82613bca565b602082019050919050565b60006020820190508181036000830152613c2f81613bf3565b9050919050565b7f455243373231456e756d657261626c653a20676c6f62616c20696e646578206f60008201527f7574206f6620626f756e64730000000000000000000000000000000000000000602082015250565b6000613c92602c83612f88565b9150613c9d82613c36565b604082019050919050565b60006020820190508181036000830152613cc181613c85565b9050919050565b7f4552433732313a20696e76616c696420746f6b656e2049440000000000000000600082015250565b6000613cfe601883612f88565b9150613d0982613cc8565b602082019050919050565b60006020820190508181036000830152613d2d81613cf1565b9050919050565b7f4552433732313a2061646472657373207a65726f206973206e6f74206120766160008201527f6c6964206f776e65720000000000000000000000000000000000000000000000602082015250565b6000613d90602983612f88565b9150613d9b82613d34565b604082019050919050565b60006020820190508181036000830152613dbf81613d83565b9050919050565b6000613dd182613038565b9150613ddc83613038565b9250817fffffffffffffffffffffffffffffffffffffffffffffffffffffffffffffffff0483118215151615613e1557613e146139cb565b5b828202905092915050565b6000613e2b82613038565b9150613e3683613038565b9250827fffffffffffffffffffffffffffffffffffffffffffffffffffffffffffffffff03821115613e6b57613e6a6139cb565b5b828201905092915050565b7f4552433732314d657461646174613a2055524920717565727920666f72206e6f60008201527f6e6578697374656e7420746f6b656e0000000000000000000000000000000000602082015250565b6000613ed2602f83612f88565b9150613edd82613e76565b604082019050919050565b60006020820190508181036000830152613f0181613ec5565b9050919050565b600081905092915050565b7f697066733a2f2f00000000000000000000000000000000000000000000000000600082015250565b6000613f49600783613f08565b9150613f5482613f13565b600782019050919050565b60008190508160005260206000209050919050565b60008154613f8181613719565b613f8b8186613f08565b94506001821660008114613fa65760018114613fb757613fea565b60ff19831686528186019350613fea565b613fc085613f5f565b60005b83811015613fe257815481890152600182019150602081019050613fc3565b838801955050505b50505092915050565b6000613ffe82613f3c565b915061400a8284613f74565b915081905092915050565b7f7b00000000000000000000000000000000000000000000000000000000000000600082015250565b600061404b600183613f08565b915061405682614015565b600182019050919050565b7f226e616d65223a20220000000000000000000000000000000000000000000000600082015250565b6000614097600983613f08565b91506140a282614061565b600982019050919050565b7f2023000000000000000000000000000000000000000000000000000000000000600082015250565b60006140e3600283613f08565b91506140ee826140ad565b600282019050919050565b600061410482612f7d565b61410e8185613f08565b935061411e818560208601612f99565b80840191505092915050565b7f222c000000000000000000000000000000000000000000000000000000000000600082015250565b6000614160600283613f08565b915061416b8261412a565b600282019050919050565b7f22696d616765223a202200000000000000000000000000000000000000000000600082015250565b60006141ac600a83613f08565b91506141b782614176565b600a82019050919050565b7f2261747472696275746573223a205b7b2274726169745f74797065223a20225260008201527f616e6b222c202276616c7565223a200000000000000000000000000000000000602082015250565b600061421e602f83613f08565b9150614229826141c2565b602f82019050919050565b7f7d2c000000000000000000000000000000000000000000000000000000000000600082015250565b600061426a600283613f08565b915061427582614234565b600282019050919050565b7f7b2274726169745f74797065223a202247616d65222c202276616c7565223a20600082015250565b60006142b6602083613f08565b91506142c182614280565b602082019050919050565b7f7d5d000000000000000000000000000000000000000000000000000000000000600082015250565b6000614302600283613f08565b915061430d826142cc565b600282019050919050565b7f7d00000000000000000000000000000000000000000000000000000000000000600082015250565b600061434e600183613f08565b915061435982614318565b600182019050919050565b600061436f8261403e565b915061437a8261408a565b91506143868288613f74565b9150614391826140d6565b915061439d82876140f9565b91506143a882614153565b91506143b38261419f565b91506143bf82866140f9565b91506143ca82614153565b91506143d582614211565b91506143e182856140f9565b91506143ec8261425d565b91506143f7826142a9565b915061440382846140f9565b915061440e826142f5565b915061441982614341565b91508190509695505050505050565b7f646174613a6170706c69636174696f6e2f6a736f6e3b6261736536342c000000600082015250565b600061445e601d83613f08565b915061446982614428565b601d82019050919050565b600061447f82614451565b915061448b82846140f9565b915081905092915050565b7f4f776e61626c653a206e6577206f776e657220697320746865207a65726f206160008201527f6464726573730000000000000000000000000000000000000000000000000000602082015250565b60006144f2602683612f88565b91506144fd82614496565b604082019050919050565b60006020820190508181036000830152614521816144e5565b9050919050565b7f19457468657265756d205369676e6564204d6573736167653a0a333200000000600082015250565b600061455e601c83613f08565b915061456982614528565b601c82019050919050565b6000819050919050565b61458f61458a82613163565b614574565b82525050565b60006145a082614551565b91506145ac828461457e565b60208201915081905092915050565b7f4552433732313a207472616e736665722066726f6d20696e636f72726563742060008201527f6f776e6572000000000000000000000000000000000000000000000000000000602082015250565b6000614617602583612f88565b9150614622826145bb565b604082019050919050565b600060208201905081810360008301526146468161460a565b9050919050565b7f4552433732313a207472616e7366657220746f20746865207a65726f2061646460008201527f7265737300000000000000000000000000000000000000000000000000000000602082015250565b60006146a9602483612f88565b91506146b48261464d565b604082019050919050565b600060208201905081810360008301526146d88161469c565b9050919050565b7f4f776e61626c653a2063616c6c6572206973206e6f7420746865206f776e6572600082015250565b6000614715602083612f88565b9150614720826146df565b602082019050919050565b6000602082019050818103600083015261474481614708565b9050919050565b7f4552433732313a20617070726f766520746f2063616c6c657200000000000000600082015250565b6000614781601983612f88565b915061478c8261474b565b602082019050919050565b600060208201905081810360008301526147b081614774565b9050919050565b7f4552433732313a207472616e7366657220746f206e6f6e20455243373231526560008201527f63656976657220696d706c656d656e7465720000000000000000000000000000602082015250565b6000614813603283612f88565b915061481e826147b7565b604082019050919050565b6000602082019050818103600083015261484281614806565b9050919050565b7f4e487b7100000000000000000000000000000000000000000000000000000000600052601260045260246000fd5b600061488382613038565b915061488e83613038565b92508261489e5761489d614849565b5b828204905092915050565b60006148b482613038565b91506148bf83613038565b9250826148cf576148ce614849565b5b828206905092915050565b7f4e487b7100000000000000000000000000000000000000000000000000000000600052602160045260246000fd5b7f45434453413a20696e76616c6964207369676e61747572650000000000000000600082015250565b600061493f601883612f88565b915061494a82614909565b602082019050919050565b6000602082019050818103600083015261496e81614932565b9050919050565b7f45434453413a20696e76616c6964207369676e6174757265206c656e67746800600082015250565b60006149ab601f83612f88565b91506149b682614975565b602082019050919050565b600060208201905081810360008301526149da8161499e565b9050919050565b7f45434453413a20696e76616c6964207369676e6174757265202773272076616c60008201527f7565000000000000000000000000000000000000000000000000000000000000602082015250565b6000614a3d602283612f88565b9150614a48826149e1565b604082019050919050565b60006020820190508181036000830152614a6c81614a30565b9050919050565b7f45434453413a20696e76616c6964207369676e6174757265202776272076616c60008201527f7565000000000000000000000000000000000000000000000000000000000000602082015250565b6000614acf602283612f88565b9150614ada82614a73565b604082019050919050565b60006020820190508181036000830152614afe81614ac2565b9050919050565b7f5061757361626c653a206e6f7420706175736564000000000000000000000000600082015250565b6000614b3b601483612f88565b9150614b4682614b05565b602082019050919050565b60006020820190508181036000830152614b6a81614b2e565b9050919050565b7f5061757361626c653a2070617573656400000000000000000000000000000000600082015250565b6000614ba7601083612f88565b9150614bb282614b71565b602082019050919050565b60006020820190508181036000830152614bd681614b9a565b9050919050565b600082825260208201905092915050565b6000614bf982613901565b614c038185614bdd565b9350614c13818560208601612f99565b614c1c81612fcc565b840191505092915050565b6000608082019050614c3c60008301876130cd565b614c4960208301866130cd565b614c56604083018561346a565b8181036060830152614c688184614bee565b905095945050505050565b600081519050614c8281612eee565b92915050565b600060208284031215614c9e57614c9d612eb8565b5b6000614cac84828501614c73565b91505092915050565b614cbe81613163565b82525050565b6000608082019050614cd96000830187614cb5565b614ce66020830186613680565b614cf36040830185614cb5565b614d006060830184614cb5565b95945050505050565b7f4552433732313a206d696e7420746f20746865207a65726f2061646472657373600082015250565b6000614d3f602083612f88565b9150614d4a82614d09565b602082019050919050565b60006020820190508181036000830152614d6e81614d32565b9050919050565b7f4552433732313a20746f6b656e20616c7265616479206d696e74656400000000600082015250565b6000614dab601c83612f88565b9150614db682614d75565b602082019050919050565b60006020820190508181036000830152614dda81614d9e565b9050919050565b7f4e487b7100000000000000000000000000000000000000000000000000000000600052603160045260246000fdfe4142434445464748494a4b4c4d4e4f505152535455565758595a6162636465666768696a6b6c6d6e6f707172737475767778797a303132333435363738392b2fa2646970667358221220b79922ab0e57b71ee2074f70b415294d904855cfc587232cd40e0a75b28f05dd64736f6c63430008090033",
  "linkReferences": {},
  "deployedLinkReferences": {}
}