{
    "_format": "hh-sol-artifact-1",
    "contractName": "Keyo",
    "sourceName": "contracts/keyo.sol",
    "abi": [
        {
            "inputs": [],
            "stateMutability": "nonpayable",
            "type": "constructor"
        },
        {
            "anonymous": false,
            "inputs": [
                {
                    "indexed": true,
                    "internalType": "address",
                    "name": "owner",
                    "type": "address"
                },
                {
                    "indexed": true,
                    "internalType": "address",
                    "name": "approved",
                    "type": "address"
                },
                {
                    "indexed": true,
                    "internalType": "uint256",
                    "name": "tokenId",
                    "type": "uint256"
                }
            ],
            "name": "Approval",
            "type": "event"
        },
        {
            "anonymous": false,
            "inputs": [
                {
                    "indexed": true,
                    "internalType": "address",
                    "name": "owner",
                    "type": "address"
                },
                {
                    "indexed": true,
                    "internalType": "address",
                    "name": "operator",
                    "type": "address"
                },
                {
                    "indexed": false,
                    "internalType": "bool",
                    "name": "approved",
                    "type": "bool"
                }
            ],
            "name": "ApprovalForAll",
            "type": "event"
        },
        {
            "anonymous": false,
            "inputs": [
                {
                    "indexed": true,
                    "internalType": "address",
                    "name": "previousOwner",
                    "type": "address"
                },
                {
                    "indexed": true,
                    "internalType": "address",
                    "name": "newOwner",
                    "type": "address"
                }
            ],
            "name": "OwnershipTransferred",
            "type": "event"
        },
        {
            "anonymous": false,
            "inputs": [
                {
                    "indexed": false,
                    "internalType": "address",
                    "name": "account",
                    "type": "address"
                }
            ],
            "name": "Paused",
            "type": "event"
        },
        {
            "anonymous": false,
            "inputs": [
                {
                    "indexed": true,
                    "internalType": "address",
                    "name": "from",
                    "type": "address"
                },
                {
                    "indexed": true,
                    "internalType": "address",
                    "name": "to",
                    "type": "address"
                },
                {
                    "indexed": true,
                    "internalType": "uint256",
                    "name": "tokenId",
                    "type": "uint256"
                }
            ],
            "name": "Transfer",
            "type": "event"
        },
        {
            "anonymous": false,
            "inputs": [
                {
                    "indexed": false,
                    "internalType": "address",
                    "name": "account",
                    "type": "address"
                }
            ],
            "name": "Unpaused",
            "type": "event"
        },
        {
            "inputs": [],
            "name": "MINT_PRICE",
            "outputs": [
                {
                    "internalType": "uint256",
                    "name": "",
                    "type": "uint256"
                }
            ],
            "stateMutability": "view",
            "type": "function"
        },
        {
            "inputs": [
                {
                    "internalType": "address",
                    "name": "to",
                    "type": "address"
                },
                {
                    "internalType": "uint256",
                    "name": "tokenId",
                    "type": "uint256"
                }
            ],
            "name": "approve",
            "outputs": [],
            "stateMutability": "nonpayable",
            "type": "function"
        },
        {
            "inputs": [
                {
                    "internalType": "address",
                    "name": "owner",
                    "type": "address"
                }
            ],
            "name": "balanceOf",
            "outputs": [
                {
                    "internalType": "uint256",
                    "name": "",
                    "type": "uint256"
                }
            ],
            "stateMutability": "view",
            "type": "function"
        },
        {
            "inputs": [],
            "name": "currentPrice",
            "outputs": [
                {
                    "internalType": "uint256",
                    "name": "",
                    "type": "uint256"
                }
            ],
            "stateMutability": "view",
            "type": "function"
        },
        {
            "inputs": [
                {
                    "internalType": "uint256",
                    "name": "tokenId",
                    "type": "uint256"
                }
            ],
            "name": "getApproved",
            "outputs": [
                {
                    "internalType": "address",
                    "name": "",
                    "type": "address"
                }
            ],
            "stateMutability": "view",
            "type": "function"
        },
        {
            "inputs": [
                {
                    "internalType": "address",
                    "name": "owner",
                    "type": "address"
                },
                {
                    "internalType": "address",
                    "name": "operator",
                    "type": "address"
                }
            ],
            "name": "isApprovedForAll",
            "outputs": [
                {
                    "internalType": "bool",
                    "name": "",
                    "type": "bool"
                }
            ],
            "stateMutability": "view",
            "type": "function"
        },
        {
            "inputs": [],
            "name": "name",
            "outputs": [
                {
                    "internalType": "string",
                    "name": "",
                    "type": "string"
                }
            ],
            "stateMutability": "view",
            "type": "function"
        },
        {
            "inputs": [],
            "name": "owner",
            "outputs": [
                {
                    "internalType": "address",
                    "name": "",
                    "type": "address"
                }
            ],
            "stateMutability": "view",
            "type": "function"
        },
        {
            "inputs": [
                {
                    "internalType": "uint256",
                    "name": "tokenId",
                    "type": "uint256"
                }
            ],
            "name": "ownerOf",
            "outputs": [
                {
                    "internalType": "address",
                    "name": "",
                    "type": "address"
                }
            ],
            "stateMutability": "view",
            "type": "function"
        },
        {
            "inputs": [],
            "name": "pause",
            "outputs": [],
            "stateMutability": "nonpayable",
            "type": "function"
        },
        {
            "inputs": [],
            "name": "paused",
            "outputs": [
                {
                    "internalType": "bool",
                    "name": "",
                    "type": "bool"
                }
            ],
            "stateMutability": "view",
            "type": "function"
        },
        {
            "inputs": [],
            "name": "renounceOwnership",
            "outputs": [],
            "stateMutability": "nonpayable",
            "type": "function"
        },
        {
            "inputs": [
                {
                    "internalType": "bytes32",
                    "name": "_hash",
                    "type": "bytes32"
                },
                {
                    "internalType": "string",
                    "name": "_name",
                    "type": "string"
                },
                {
                    "internalType": "string",
                    "name": "_image",
                    "type": "string"
                },
                {
                    "internalType": "bytes",
                    "name": "_signature",
                    "type": "bytes"
                },
                {
                    "internalType": "bool",
                    "name": "isNew",
                    "type": "bool"
                }
            ],
            "name": "safeMint",
            "outputs": [],
            "stateMutability": "payable",
            "type": "function"
        },
        {
            "inputs": [
                {
                    "internalType": "address",
                    "name": "from",
                    "type": "address"
                },
                {
                    "internalType": "address",
                    "name": "to",
                    "type": "address"
                },
                {
                    "internalType": "uint256",
                    "name": "tokenId",
                    "type": "uint256"
                }
            ],
            "name": "safeTransferFrom",
            "outputs": [],
            "stateMutability": "nonpayable",
            "type": "function"
        },
        {
            "inputs": [
                {
                    "internalType": "address",
                    "name": "from",
                    "type": "address"
                },
                {
                    "internalType": "address",
                    "name": "to",
                    "type": "address"
                },
                {
                    "internalType": "uint256",
                    "name": "tokenId",
                    "type": "uint256"
                },
                {
                    "internalType": "bytes",
                    "name": "data",
                    "type": "bytes"
                }
            ],
            "name": "safeTransferFrom",
            "outputs": [],
            "stateMutability": "nonpayable",
            "type": "function"
        },
        {
            "inputs": [
                {
                    "internalType": "address",
                    "name": "operator",
                    "type": "address"
                },
                {
                    "internalType": "bool",
                    "name": "approved",
                    "type": "bool"
                }
            ],
            "name": "setApprovalForAll",
            "outputs": [],
            "stateMutability": "nonpayable",
            "type": "function"
        },
        {
            "inputs": [
                {
                    "internalType": "bytes4",
                    "name": "interfaceId",
                    "type": "bytes4"
                }
            ],
            "name": "supportsInterface",
            "outputs": [
                {
                    "internalType": "bool",
                    "name": "",
                    "type": "bool"
                }
            ],
            "stateMutability": "view",
            "type": "function"
        },
        {
            "inputs": [],
            "name": "symbol",
            "outputs": [
                {
                    "internalType": "string",
                    "name": "",
                    "type": "string"
                }
            ],
            "stateMutability": "view",
            "type": "function"
        },
        {
            "inputs": [
                {
                    "internalType": "uint256",
                    "name": "index",
                    "type": "uint256"
                }
            ],
            "name": "tokenByIndex",
            "outputs": [
                {
                    "internalType": "uint256",
                    "name": "",
                    "type": "uint256"
                }
            ],
            "stateMutability": "view",
            "type": "function"
        },
        {
            "inputs": [
                {
                    "internalType": "uint256",
                    "name": "",
                    "type": "uint256"
                }
            ],
            "name": "tokenIdToGame",
            "outputs": [
                {
                    "internalType": "uint256",
                    "name": "game",
                    "type": "uint256"
                },
                {
                    "internalType": "uint256",
                    "name": "rank",
                    "type": "uint256"
                },
                {
                    "internalType": "string",
                    "name": "name",
                    "type": "string"
                },
                {
                    "internalType": "string",
                    "name": "image",
                    "type": "string"
                }
            ],
            "stateMutability": "view",
            "type": "function"
        },
        {
            "inputs": [
                {
                    "internalType": "address",
                    "name": "owner",
                    "type": "address"
                },
                {
                    "internalType": "uint256",
                    "name": "index",
                    "type": "uint256"
                }
            ],
            "name": "tokenOfOwnerByIndex",
            "outputs": [
                {
                    "internalType": "uint256",
                    "name": "",
                    "type": "uint256"
                }
            ],
            "stateMutability": "view",
            "type": "function"
        },
        {
            "inputs": [
                {
                    "internalType": "uint256",
                    "name": "tokenId",
                    "type": "uint256"
                }
            ],
            "name": "tokenURI",
            "outputs": [
                {
                    "internalType": "string",
                    "name": "",
                    "type": "string"
                }
            ],
            "stateMutability": "view",
            "type": "function"
        },
        {
            "inputs": [],
            "name": "totalSupply",
            "outputs": [
                {
                    "internalType": "uint256",
                    "name": "",
                    "type": "uint256"
                }
            ],
            "stateMutability": "view",
            "type": "function"
        },
        {
            "inputs": [
                {
                    "internalType": "address",
                    "name": "from",
                    "type": "address"
                },
                {
                    "internalType": "address",
                    "name": "to",
                    "type": "address"
                },
                {
                    "internalType": "uint256",
                    "name": "tokenId",
                    "type": "uint256"
                }
            ],
            "name": "transferFrom",
            "outputs": [],
            "stateMutability": "nonpayable",
            "type": "function"
        },
        {
            "inputs": [
                {
                    "internalType": "address",
                    "name": "newOwner",
                    "type": "address"
                }
            ],
            "name": "transferOwnership",
            "outputs": [],
            "stateMutability": "nonpayable",
            "type": "function"
        },
        {
            "inputs": [],
            "name": "unpause",
            "outputs": [],
            "stateMutability": "nonpayable",
            "type": "function"
        },
        {
            "inputs": [],
            "name": "withdraw",
            "outputs": [],
            "stateMutability": "nonpayable",
            "type": "function"
        }
    ],
    "bytecode": "0x6080604052662386f26fc10000600f553480156200001c57600080fd5b506040518060400160405280600481526020017f4b65796f000000000000000000000000000000000000000000000000000000008152506040518060400160405280600381526020017f4b594f00000000000000000000000000000000000000000000000000000000008152508160009080519060200190620000a1929190620001f6565b508060019080519060200190620000ba929190620001f6565b5050506000600a60006101000a81548160ff021916908315150217905550620000f8620000ec6200012860201b60201c565b6200013060201b60201c565b600d600090806001815401808255809150506001900390600052602060002001600090919091909150556200030b565b600033905090565b6000600a60019054906101000a900473ffffffffffffffffffffffffffffffffffffffff16905081600a60016101000a81548173ffffffffffffffffffffffffffffffffffffffff021916908373ffffffffffffffffffffffffffffffffffffffff1602179055508173ffffffffffffffffffffffffffffffffffffffff168173ffffffffffffffffffffffffffffffffffffffff167f8be0079c531659141344cd1fd0a4f28419497f9722a3daafe3b4186f6b6457e060405160405180910390a35050565b8280546200020490620002d5565b90600052602060002090601f01602090048101928262000228576000855562000274565b82601f106200024357805160ff191683800117855562000274565b8280016001018555821562000274579182015b828111156200027357825182559160200191906001019062000256565b5b50905062000283919062000287565b5090565b5b80821115620002a257600081600090555060010162000288565b5090565b7f4e487b7100000000000000000000000000000000000000000000000000000000600052602260045260246000fd5b60006002820490506001821680620002ee57607f821691505b60208210811415620003055762000304620002a6565b5b50919050565b614cd4806200031b6000396000f3fe60806040526004361061019c5760003560e01c80636352211e116100ec578063a22cb4651161008a578063c002d23d11610064578063c002d23d14610596578063c87b56dd146105c1578063e985e9c5146105fe578063f2fde38b1461063b5761019c565b8063a22cb46514610504578063a2e8638a1461052d578063b88d4fde1461056d5761019c565b80638456cb59116100c65780638456cb591461046c5780638da5cb5b1461048357806395d89b41146104ae5780639d1b464a146104d95761019c565b80636352211e146103db57806370a0823114610418578063715018a6146104555761019c565b806323b872dd116101595780633f4ba83a116101335780633f4ba83a1461033357806342842e0e1461034a5780634f6ccce7146103735780635c975abb146103b05761019c565b806323b872dd146102b65780632f745c59146102df5780633ccfd60b1461031c5761019c565b806301ffc9a7146101a157806306fdde03146101de578063081812fc14610209578063095ea7b3146102465780630b97699c1461026f57806318160ddd1461028b575b600080fd5b3480156101ad57600080fd5b506101c860048036038101906101c39190612e1f565b610664565b6040516101d59190612e67565b60405180910390f35b3480156101ea57600080fd5b506101f3610676565b6040516102009190612f1b565b60405180910390f35b34801561021557600080fd5b50610230600480360381019061022b9190612f73565b610708565b60405161023d9190612fe1565b60405180910390f35b34801561025257600080fd5b5061026d60048036038101906102689190613028565b61074e565b005b610289600480360381019061028491906132a0565b610866565b005b34801561029757600080fd5b506102a0610a9b565b6040516102ad919061337e565b60405180910390f35b3480156102c257600080fd5b506102dd60048036038101906102d89190613399565b610aa8565b005b3480156102eb57600080fd5b5061030660048036038101906103019190613028565b610b08565b604051610313919061337e565b60405180910390f35b34801561032857600080fd5b50610331610bad565b005b34801561033f57600080fd5b50610348610c48565b005b34801561035657600080fd5b50610371600480360381019061036c9190613399565b610c5a565b005b34801561037f57600080fd5b5061039a60048036038101906103959190612f73565b610c7a565b6040516103a7919061337e565b60405180910390f35b3480156103bc57600080fd5b506103c5610ceb565b6040516103d29190612e67565b60405180910390f35b3480156103e757600080fd5b5061040260048036038101906103fd9190612f73565b610d02565b60405161040f9190612fe1565b60405180910390f35b34801561042457600080fd5b5061043f600480360381019061043a91906133ec565b610db4565b60405161044c919061337e565b60405180910390f35b34801561046157600080fd5b5061046a610e6c565b005b34801561047857600080fd5b50610481610e80565b005b34801561048f57600080fd5b50610498610e92565b6040516104a59190612fe1565b60405180910390f35b3480156104ba57600080fd5b506104c3610ebc565b6040516104d09190612f1b565b60405180910390f35b3480156104e557600080fd5b506104ee610f4e565b6040516104fb919061337e565b60405180910390f35b34801561051057600080fd5b5061052b60048036038101906105269190613419565b610fa4565b005b34801561053957600080fd5b50610554600480360381019061054f9190612f73565b610fba565b6040516105649493929190613459565b60405180910390f35b34801561057957600080fd5b50610594600480360381019061058f91906134ac565b6110fa565b005b3480156105a257600080fd5b506105ab61115c565b6040516105b8919061337e565b60405180910390f35b3480156105cd57600080fd5b506105e860048036038101906105e39190612f73565b611162565b6040516105f59190612f1b565b60405180910390f35b34801561060a57600080fd5b506106256004803603810190610620919061352f565b61129b565b6040516106329190612e67565b60405180910390f35b34801561064757600080fd5b50610662600480360381019061065d91906133ec565b61132f565b005b600061066f826113b3565b9050919050565b6060600080546106859061359e565b80601f01602080910402602001604051908101604052809291908181526020018280546106b19061359e565b80156106fe5780601f106106d3576101008083540402835291602001916106fe565b820191906000526020600020905b8154815290600101906020018083116106e157829003601f168201915b5050505050905090565b60006107138261142d565b6004600083815260200190815260200160002060009054906101000a900473ffffffffffffffffffffffffffffffffffffffff169050919050565b600061075982610d02565b90508073ffffffffffffffffffffffffffffffffffffffff168373ffffffffffffffffffffffffffffffffffffffff1614156107ca576040517f08c379a00000000000000000000000000000000000000000000000000000000081526004016107c190613642565b60405180910390fd5b8073ffffffffffffffffffffffffffffffffffffffff166107e9611478565b73ffffffffffffffffffffffffffffffffffffffff161480610818575061081781610812611478565b61129b565b5b610857576040517f08c379a000000000000000000000000000000000000000000000000000000000815260040161084e906136d4565b60405180910390fd5b6108618383611480565b505050565b61086e610e92565b73ffffffffffffffffffffffffffffffffffffffff1661089661089087611539565b84611569565b73ffffffffffffffffffffffffffffffffffffffff16146108ec576040517f08c379a00000000000000000000000000000000000000000000000000000000081526004016108e390613766565b60405180910390fd5b6108f4610f4e565b341015610936576040517f08c379a000000000000000000000000000000000000000000000000000000000815260040161092d906137d2565b60405180910390fd5b6000610942600c611590565b905061094e600c61159e565b811561097f57600d600090806001815401808255809150506001900390600052602060002001600090919091909150555b600d6001600d805490506109939190613821565b815481106109a4576109a3613855565b5b9060005260206000200160008154809291906109bf90613884565b919050555060405180608001604052806001600d805490506109e19190613821565b8152602001600d6001600d805490506109fa9190613821565b81548110610a0b57610a0a613855565b5b9060005260206000200154815260200186815260200185815250600b600083815260200190815260200160002060008201518160000155602082015181600101556040820151816002019080519060200190610a68929190612d10565b506060820151816003019080519060200190610a85929190612d10565b50905050610a9333826115b4565b505050505050565b6000600880549050905090565b610ab9610ab3611478565b826115d2565b610af8576040517f08c379a0000000000000000000000000000000000000000000000000000000008152600401610aef9061393f565b60405180910390fd5b610b03838383611667565b505050565b6000610b1383610db4565b8210610b54576040517f08c379a0000000000000000000000000000000000000000000000000000000008152600401610b4b906139d1565b60405180910390fd5b600660008473ffffffffffffffffffffffffffffffffffffffff1673ffffffffffffffffffffffffffffffffffffffff168152602001908152602001600020600083815260200190815260200160002054905092915050565b610bb56118ce565b60004711610bf8576040517f08c379a0000000000000000000000000000000000000000000000000000000008152600401610bef90613a3d565b60405180910390fd5b610c00610e92565b73ffffffffffffffffffffffffffffffffffffffff166108fc479081150290604051600060405180830381858888f19350505050158015610c45573d6000803e3d6000fd5b50565b610c506118ce565b610c5861194c565b565b610c75838383604051806020016040528060008152506110fa565b505050565b6000610c84610a9b565b8210610cc5576040517f08c379a0000000000000000000000000000000000000000000000000000000008152600401610cbc90613acf565b60405180910390fd5b60088281548110610cd957610cd8613855565b5b90600052602060002001549050919050565b6000600a60009054906101000a900460ff16905090565b6000806002600084815260200190815260200160002060009054906101000a900473ffffffffffffffffffffffffffffffffffffffff169050600073ffffffffffffffffffffffffffffffffffffffff168173ffffffffffffffffffffffffffffffffffffffff161415610dab576040517f08c379a0000000000000000000000000000000000000000000000000000000008152600401610da290613b3b565b60405180910390fd5b80915050919050565b60008073ffffffffffffffffffffffffffffffffffffffff168273ffffffffffffffffffffffffffffffffffffffff161415610e25576040517f08c379a0000000000000000000000000000000000000000000000000000000008152600401610e1c90613bcd565b60405180910390fd5b600360008373ffffffffffffffffffffffffffffffffffffffff1673ffffffffffffffffffffffffffffffffffffffff168152602001908152602001600020549050919050565b610e746118ce565b610e7e60006119af565b565b610e886118ce565b610e90611a75565b565b6000600a60019054906101000a900473ffffffffffffffffffffffffffffffffffffffff16905090565b606060018054610ecb9061359e565b80601f0160208091040260200160405190810160405280929190818152602001828054610ef79061359e565b8015610f445780601f10610f1957610100808354040283529160200191610f44565b820191906000526020600020905b815481529060010190602001808311610f2757829003601f168201915b5050505050905090565b6000600d6001600d80549050610f649190613821565b81548110610f7557610f74613855565b5b9060005260206000200154662386f26fc10000610f929190613bed565b600f54610f9f9190613c47565b905090565b610fb6610faf611478565b8383611ad8565b5050565b600b602052806000526040600020600091509050806000015490806001015490806002018054610fe99061359e565b80601f01602080910402602001604051908101604052809291908181526020018280546110159061359e565b80156110625780601f1061103757610100808354040283529160200191611062565b820191906000526020600020905b81548152906001019060200180831161104557829003601f168201915b5050505050908060030180546110779061359e565b80601f01602080910402602001604051908101604052809291908181526020018280546110a39061359e565b80156110f05780601f106110c5576101008083540402835291602001916110f0565b820191906000526020600020905b8154815290600101906020018083116110d357829003601f168201915b5050505050905084565b61110b611105611478565b836115d2565b61114a576040517f08c379a00000000000000000000000000000000000000000000000000000000081526004016111419061393f565b60405180910390fd5b61115684848484611c45565b50505050565b600f5481565b606061116d82611ca1565b6111ac576040517f08c379a00000000000000000000000000000000000000000000000000000000081526004016111a390613d0f565b60405180910390fd5b6000600b60008481526020019081526020016000206003016040516020016111d49190613e1a565b60405160208183030381529060405290506000600b600085815260200190815260200160002060020161120685611d0d565b83611226600b600089815260200190815260200160002060010154611d0d565b611245600b60008a815260200190815260200160002060000154611d0d565b60405160200161125995949392919061418b565b604051602081830303815290604052905061127381611e6e565b604051602001611283919061429b565b60405160208183030381529060405292505050919050565b6000600560008473ffffffffffffffffffffffffffffffffffffffff1673ffffffffffffffffffffffffffffffffffffffff16815260200190815260200160002060008373ffffffffffffffffffffffffffffffffffffffff1673ffffffffffffffffffffffffffffffffffffffff16815260200190815260200160002060009054906101000a900460ff16905092915050565b6113376118ce565b600073ffffffffffffffffffffffffffffffffffffffff168173ffffffffffffffffffffffffffffffffffffffff1614156113a7576040517f08c379a000000000000000000000000000000000000000000000000000000000815260040161139e9061432f565b60405180910390fd5b6113b0816119af565b50565b60007f780e9d63000000000000000000000000000000000000000000000000000000007bffffffffffffffffffffffffffffffffffffffffffffffffffffffff1916827bffffffffffffffffffffffffffffffffffffffffffffffffffffffff19161480611426575061142582611fd2565b5b9050919050565b61143681611ca1565b611475576040517f08c379a000000000000000000000000000000000000000000000000000000000815260040161146c90613b3b565b60405180910390fd5b50565b600033905090565b816004600083815260200190815260200160002060006101000a81548173ffffffffffffffffffffffffffffffffffffffff021916908373ffffffffffffffffffffffffffffffffffffffff160217905550808273ffffffffffffffffffffffffffffffffffffffff166114f383610d02565b73ffffffffffffffffffffffffffffffffffffffff167f8c5be1e5ebec7d5bd14f71427d1e84f3dd0314c0f7b2291e5b200ac8c7c3b92560405160405180910390a45050565b60008160405160200161154c91906143bc565b604051602081830303815290604052805190602001209050919050565b600080600061157885856120b4565b9150915061158581612106565b819250505092915050565b600081600001549050919050565b6001816000016000828254019250508190555050565b6115ce8282604051806020016040528060008152506122db565b5050565b6000806115de83610d02565b90508073ffffffffffffffffffffffffffffffffffffffff168473ffffffffffffffffffffffffffffffffffffffff161480611620575061161f818561129b565b5b8061165e57508373ffffffffffffffffffffffffffffffffffffffff1661164684610708565b73ffffffffffffffffffffffffffffffffffffffff16145b91505092915050565b8273ffffffffffffffffffffffffffffffffffffffff1661168782610d02565b73ffffffffffffffffffffffffffffffffffffffff16146116dd576040517f08c379a00000000000000000000000000000000000000000000000000000000081526004016116d490614454565b60405180910390fd5b600073ffffffffffffffffffffffffffffffffffffffff168273ffffffffffffffffffffffffffffffffffffffff16141561174d576040517f08c379a0000000000000000000000000000000000000000000000000000000008152600401611744906144e6565b60405180910390fd5b611758838383612336565b611763600082611480565b6001600360008573ffffffffffffffffffffffffffffffffffffffff1673ffffffffffffffffffffffffffffffffffffffff16815260200190815260200160002060008282546117b39190613821565b925050819055506001600360008473ffffffffffffffffffffffffffffffffffffffff1673ffffffffffffffffffffffffffffffffffffffff168152602001908152602001600020600082825461180a9190613c47565b92505081905550816002600083815260200190815260200160002060006101000a81548173ffffffffffffffffffffffffffffffffffffffff021916908373ffffffffffffffffffffffffffffffffffffffff160217905550808273ffffffffffffffffffffffffffffffffffffffff168473ffffffffffffffffffffffffffffffffffffffff167fddf252ad1be2c89b69c2b068fc378daa952ba7f163c4a11628f55a4df523b3ef60405160405180910390a46118c983838361234e565b505050565b6118d6611478565b73ffffffffffffffffffffffffffffffffffffffff166118f4610e92565b73ffffffffffffffffffffffffffffffffffffffff161461194a576040517f08c379a000000000000000000000000000000000000000000000000000000000815260040161194190614552565b60405180910390fd5b565b611954612353565b6000600a60006101000a81548160ff0219169083151502179055507f5db9ee0a495bf2e6ff9c91a7834c1ba4fdd244a5e8aa4e537bd38aeae4b073aa611998611478565b6040516119a59190612fe1565b60405180910390a1565b6000600a60019054906101000a900473ffffffffffffffffffffffffffffffffffffffff16905081600a60016101000a81548173ffffffffffffffffffffffffffffffffffffffff021916908373ffffffffffffffffffffffffffffffffffffffff1602179055508173ffffffffffffffffffffffffffffffffffffffff168173ffffffffffffffffffffffffffffffffffffffff167f8be0079c531659141344cd1fd0a4f28419497f9722a3daafe3b4186f6b6457e060405160405180910390a35050565b611a7d61239c565b6001600a60006101000a81548160ff0219169083151502179055507f62e78cea01bee320cd4e420270b5ea74000d11b0c9f74754ebdbfc544b05a258611ac1611478565b604051611ace9190612fe1565b60405180910390a1565b8173ffffffffffffffffffffffffffffffffffffffff168373ffffffffffffffffffffffffffffffffffffffff161415611b47576040517f08c379a0000000000000000000000000000000000000000000000000000000008152600401611b3e906145be565b60405180910390fd5b80600560008573ffffffffffffffffffffffffffffffffffffffff1673ffffffffffffffffffffffffffffffffffffffff16815260200190815260200160002060008473ffffffffffffffffffffffffffffffffffffffff1673ffffffffffffffffffffffffffffffffffffffff16815260200190815260200160002060006101000a81548160ff0219169083151502179055508173ffffffffffffffffffffffffffffffffffffffff168373ffffffffffffffffffffffffffffffffffffffff167f17307eab39ab6107e8899845ad3d59bd9653f200f220920489ca2b5937696c3183604051611c389190612e67565b60405180910390a3505050565b611c50848484611667565b611c5c848484846123e6565b611c9b576040517f08c379a0000000000000000000000000000000000000000000000000000000008152600401611c9290614650565b60405180910390fd5b50505050565b60008073ffffffffffffffffffffffffffffffffffffffff166002600084815260200190815260200160002060009054906101000a900473ffffffffffffffffffffffffffffffffffffffff1673ffffffffffffffffffffffffffffffffffffffff1614159050919050565b60606000821415611d55576040518060400160405280600181526020017f30000000000000000000000000000000000000000000000000000000000000008152509050611e69565b600082905060005b60008214611d87578080611d7090613884565b915050600a82611d80919061469f565b9150611d5d565b60008167ffffffffffffffff811115611da357611da26130a8565b5b6040519080825280601f01601f191660200182016040528015611dd55781602001600182028036833780820191505090505b5090505b60008514611e6257600182611dee9190613821565b9150600a85611dfd91906146d0565b6030611e099190613c47565b60f81b818381518110611e1f57611e1e613855565b5b60200101907effffffffffffffffffffffffffffffffffffffffffffffffffffffffffffff1916908160001a905350600a85611e5b919061469f565b9450611dd9565b8093505050505b919050565b6060600082511415611e9157604051806020016040528060008152509050611fcd565b6000604051806060016040528060408152602001614c5f6040913990506000600360028551611ec09190613c47565b611eca919061469f565b6004611ed69190613bed565b67ffffffffffffffff811115611eef57611eee6130a8565b5b6040519080825280601f01601f191660200182016040528015611f215781602001600182028036833780820191505090505b509050600182016020820185865187015b80821015611f8d576003820191508151603f8160121c168501518453600184019350603f81600c1c168501518453600184019350603f8160061c168501518453600184019350603f8116850151845360018401935050611f32565b5050600386510660018114611fa95760028114611fbc57611fc4565b603d6001830353603d6002830353611fc4565b603d60018303535b50505080925050505b919050565b60007f80ac58cd000000000000000000000000000000000000000000000000000000007bffffffffffffffffffffffffffffffffffffffffffffffffffffffff1916827bffffffffffffffffffffffffffffffffffffffffffffffffffffffff1916148061209d57507f5b5e139f000000000000000000000000000000000000000000000000000000007bffffffffffffffffffffffffffffffffffffffffffffffffffffffff1916827bffffffffffffffffffffffffffffffffffffffffffffffffffffffff1916145b806120ad57506120ac8261257d565b5b9050919050565b6000806041835114156120f65760008060006020860151925060408601519150606086015160001a90506120ea878285856125e7565b945094505050506120ff565b60006002915091505b9250929050565b6000600481111561211a57612119614701565b5b81600481111561212d5761212c614701565b5b1415612138576122d8565b6001600481111561214c5761214b614701565b5b81600481111561215f5761215e614701565b5b14156121a0576040517f08c379a00000000000000000000000000000000000000000000000000000000081526004016121979061477c565b60405180910390fd5b600260048111156121b4576121b3614701565b5b8160048111156121c7576121c6614701565b5b1415612208576040517f08c379a00000000000000000000000000000000000000000000000000000000081526004016121ff906147e8565b60405180910390fd5b6003600481111561221c5761221b614701565b5b81600481111561222f5761222e614701565b5b1415612270576040517f08c379a00000000000000000000000000000000000000000000000000000000081526004016122679061487a565b60405180910390fd5b60048081111561228357612282614701565b5b81600481111561229657612295614701565b5b14156122d7576040517f08c379a00000000000000000000000000000000000000000000000000000000081526004016122ce9061490c565b60405180910390fd5b5b50565b6122e583836126f4565b6122f260008484846123e6565b612331576040517f08c379a000000000000000000000000000000000000000000000000000000000815260040161232890614650565b60405180910390fd5b505050565b61233e61239c565b6123498383836128ce565b505050565b505050565b61235b610ceb565b61239a576040517f08c379a000000000000000000000000000000000000000000000000000000000815260040161239190614978565b60405180910390fd5b565b6123a4610ceb565b156123e4576040517f08c379a00000000000000000000000000000000000000000000000000000000081526004016123db906149e4565b60405180910390fd5b565b60006124078473ffffffffffffffffffffffffffffffffffffffff166129e2565b15612570578373ffffffffffffffffffffffffffffffffffffffff1663150b7a02612430611478565b8786866040518563ffffffff1660e01b81526004016124529493929190614a59565b602060405180830381600087803b15801561246c57600080fd5b505af192505050801561249d57506040513d601f19601f8201168201806040525081019061249a9190614aba565b60015b612520573d80600081146124cd576040519150601f19603f3d011682016040523d82523d6000602084013e6124d2565b606091505b50600081511415612518576040517f08c379a000000000000000000000000000000000000000000000000000000000815260040161250f90614650565b60405180910390fd5b805181602001fd5b63150b7a0260e01b7bffffffffffffffffffffffffffffffffffffffffffffffffffffffff1916817bffffffffffffffffffffffffffffffffffffffffffffffffffffffff191614915050612575565b600190505b949350505050565b60007f01ffc9a7000000000000000000000000000000000000000000000000000000007bffffffffffffffffffffffffffffffffffffffffffffffffffffffff1916827bffffffffffffffffffffffffffffffffffffffffffffffffffffffff1916149050919050565b6000807f7fffffffffffffffffffffffffffffff5d576e7357a4501ddfe92f46681b20a08360001c11156126225760006003915091506126eb565b601b8560ff161415801561263a5750601c8560ff1614155b1561264c5760006004915091506126eb565b6000600187878787604051600081526020016040526040516126719493929190614b12565b6020604051602081039080840390855afa158015612693573d6000803e3d6000fd5b505050602060405103519050600073ffffffffffffffffffffffffffffffffffffffff168173ffffffffffffffffffffffffffffffffffffffff1614156126e2576000600192509250506126eb565b80600092509250505b94509492505050565b600073ffffffffffffffffffffffffffffffffffffffff168273ffffffffffffffffffffffffffffffffffffffff161415612764576040517f08c379a000000000000000000000000000000000000000000000000000000000815260040161275b90614ba3565b60405180910390fd5b61276d81611ca1565b156127ad576040517f08c379a00000000000000000000000000000000000000000000000000000000081526004016127a490614c0f565b60405180910390fd5b6127b960008383612336565b6001600360008473ffffffffffffffffffffffffffffffffffffffff1673ffffffffffffffffffffffffffffffffffffffff16815260200190815260200160002060008282546128099190613c47565b92505081905550816002600083815260200190815260200160002060006101000a81548173ffffffffffffffffffffffffffffffffffffffff021916908373ffffffffffffffffffffffffffffffffffffffff160217905550808273ffffffffffffffffffffffffffffffffffffffff16600073ffffffffffffffffffffffffffffffffffffffff167fddf252ad1be2c89b69c2b068fc378daa952ba7f163c4a11628f55a4df523b3ef60405160405180910390a46128ca6000838361234e565b5050565b6128d9838383612a05565b600073ffffffffffffffffffffffffffffffffffffffff168373ffffffffffffffffffffffffffffffffffffffff16141561291c5761291781612a0a565b61295b565b8173ffffffffffffffffffffffffffffffffffffffff168373ffffffffffffffffffffffffffffffffffffffff161461295a576129598382612a53565b5b5b600073ffffffffffffffffffffffffffffffffffffffff168273ffffffffffffffffffffffffffffffffffffffff16141561299e5761299981612bc0565b6129dd565b8273ffffffffffffffffffffffffffffffffffffffff168273ffffffffffffffffffffffffffffffffffffffff16146129dc576129db8282612c91565b5b5b505050565b6000808273ffffffffffffffffffffffffffffffffffffffff163b119050919050565b505050565b6008805490506009600083815260200190815260200160002081905550600881908060018154018082558091505060019003906000526020600020016000909190919091505550565b60006001612a6084610db4565b612a6a9190613821565b9050600060076000848152602001908152602001600020549050818114612b4f576000600660008673ffffffffffffffffffffffffffffffffffffffff1673ffffffffffffffffffffffffffffffffffffffff168152602001908152602001600020600084815260200190815260200160002054905080600660008773ffffffffffffffffffffffffffffffffffffffff1673ffffffffffffffffffffffffffffffffffffffff168152602001908152602001600020600084815260200190815260200160002081905550816007600083815260200190815260200160002081905550505b6007600084815260200190815260200160002060009055600660008573ffffffffffffffffffffffffffffffffffffffff1673ffffffffffffffffffffffffffffffffffffffff16815260200190815260200160002060008381526020019081526020016000206000905550505050565b60006001600880549050612bd49190613821565b9050600060096000848152602001908152602001600020549050600060088381548110612c0457612c03613855565b5b906000526020600020015490508060088381548110612c2657612c25613855565b5b906000526020600020018190555081600960008381526020019081526020016000208190555060096000858152602001908152602001600020600090556008805480612c7557612c74614c2f565b5b6001900381819060005260206000200160009055905550505050565b6000612c9c83610db4565b905081600660008573ffffffffffffffffffffffffffffffffffffffff1673ffffffffffffffffffffffffffffffffffffffff168152602001908152602001600020600083815260200190815260200160002081905550806007600084815260200190815260200160002081905550505050565b828054612d1c9061359e565b90600052602060002090601f016020900481019282612d3e5760008555612d85565b82601f10612d5757805160ff1916838001178555612d85565b82800160010185558215612d85579182015b82811115612d84578251825591602001919060010190612d69565b5b509050612d929190612d96565b5090565b5b80821115612daf576000816000905550600101612d97565b5090565b6000604051905090565b600080fd5b600080fd5b60007fffffffff0000000000000000000000000000000000000000000000000000000082169050919050565b612dfc81612dc7565b8114612e0757600080fd5b50565b600081359050612e1981612df3565b92915050565b600060208284031215612e3557612e34612dbd565b5b6000612e4384828501612e0a565b91505092915050565b60008115159050919050565b612e6181612e4c565b82525050565b6000602082019050612e7c6000830184612e58565b92915050565b600081519050919050565b600082825260208201905092915050565b60005b83811015612ebc578082015181840152602081019050612ea1565b83811115612ecb576000848401525b50505050565b6000601f19601f8301169050919050565b6000612eed82612e82565b612ef78185612e8d565b9350612f07818560208601612e9e565b612f1081612ed1565b840191505092915050565b60006020820190508181036000830152612f358184612ee2565b905092915050565b6000819050919050565b612f5081612f3d565b8114612f5b57600080fd5b50565b600081359050612f6d81612f47565b92915050565b600060208284031215612f8957612f88612dbd565b5b6000612f9784828501612f5e565b91505092915050565b600073ffffffffffffffffffffffffffffffffffffffff82169050919050565b6000612fcb82612fa0565b9050919050565b612fdb81612fc0565b82525050565b6000602082019050612ff66000830184612fd2565b92915050565b61300581612fc0565b811461301057600080fd5b50565b60008135905061302281612ffc565b92915050565b6000806040838503121561303f5761303e612dbd565b5b600061304d85828601613013565b925050602061305e85828601612f5e565b9150509250929050565b6000819050919050565b61307b81613068565b811461308657600080fd5b50565b60008135905061309881613072565b92915050565b600080fd5b600080fd5b7f4e487b7100000000000000000000000000000000000000000000000000000000600052604160045260246000fd5b6130e082612ed1565b810181811067ffffffffffffffff821117156130ff576130fe6130a8565b5b80604052505050565b6000613112612db3565b905061311e82826130d7565b919050565b600067ffffffffffffffff82111561313e5761313d6130a8565b5b61314782612ed1565b9050602081019050919050565b82818337600083830152505050565b600061317661317184613123565b613108565b905082815260208101848484011115613192576131916130a3565b5b61319d848285613154565b509392505050565b600082601f8301126131ba576131b961309e565b5b81356131ca848260208601613163565b91505092915050565b600067ffffffffffffffff8211156131ee576131ed6130a8565b5b6131f782612ed1565b9050602081019050919050565b6000613217613212846131d3565b613108565b905082815260208101848484011115613233576132326130a3565b5b61323e848285613154565b509392505050565b600082601f83011261325b5761325a61309e565b5b813561326b848260208601613204565b91505092915050565b61327d81612e4c565b811461328857600080fd5b50565b60008135905061329a81613274565b92915050565b600080600080600060a086880312156132bc576132bb612dbd565b5b60006132ca88828901613089565b955050602086013567ffffffffffffffff8111156132eb576132ea612dc2565b5b6132f7888289016131a5565b945050604086013567ffffffffffffffff81111561331857613317612dc2565b5b613324888289016131a5565b935050606086013567ffffffffffffffff81111561334557613344612dc2565b5b61335188828901613246565b92505060806133628882890161328b565b9150509295509295909350565b61337881612f3d565b82525050565b6000602082019050613393600083018461336f565b92915050565b6000806000606084860312156133b2576133b1612dbd565b5b60006133c086828701613013565b93505060206133d186828701613013565b92505060406133e286828701612f5e565b9150509250925092565b60006020828403121561340257613401612dbd565b5b600061341084828501613013565b91505092915050565b600080604083850312156134305761342f612dbd565b5b600061343e85828601613013565b925050602061344f8582860161328b565b9150509250929050565b600060808201905061346e600083018761336f565b61347b602083018661336f565b818103604083015261348d8185612ee2565b905081810360608301526134a18184612ee2565b905095945050505050565b600080600080608085870312156134c6576134c5612dbd565b5b60006134d487828801613013565b94505060206134e587828801613013565b93505060406134f687828801612f5e565b925050606085013567ffffffffffffffff81111561351757613516612dc2565b5b61352387828801613246565b91505092959194509250565b6000806040838503121561354657613545612dbd565b5b600061355485828601613013565b925050602061356585828601613013565b9150509250929050565b7f4e487b7100000000000000000000000000000000000000000000000000000000600052602260045260246000fd5b600060028204905060018216806135b657607f821691505b602082108114156135ca576135c961356f565b5b50919050565b7f4552433732313a20617070726f76616c20746f2063757272656e74206f776e6560008201527f7200000000000000000000000000000000000000000000000000000000000000602082015250565b600061362c602183612e8d565b9150613637826135d0565b604082019050919050565b6000602082019050818103600083015261365b8161361f565b9050919050565b7f4552433732313a20617070726f76652063616c6c6572206973206e6f7420746f60008201527f6b656e206f776e6572206e6f7220617070726f76656420666f7220616c6c0000602082015250565b60006136be603e83612e8d565b91506136c982613662565b604082019050919050565b600060208201905081810360008301526136ed816136b1565b9050919050565b7f5665726966696564207369676e617475726520646f6573206e6f74206d61746360008201527f68206f776e657273206164647265737300000000000000000000000000000000602082015250565b6000613750603083612e8d565b915061375b826136f4565b604082019050919050565b6000602082019050818103600083015261377f81613743565b9050919050565b7f4e6f7420656e6f7567682065746865722073656e742e00000000000000000000600082015250565b60006137bc601683612e8d565b91506137c782613786565b602082019050919050565b600060208201905081810360008301526137eb816137af565b9050919050565b7f4e487b7100000000000000000000000000000000000000000000000000000000600052601160045260246000fd5b600061382c82612f3d565b915061383783612f3d565b92508282101561384a576138496137f2565b5b828203905092915050565b7f4e487b7100000000000000000000000000000000000000000000000000000000600052603260045260246000fd5b600061388f82612f3d565b91507fffffffffffffffffffffffffffffffffffffffffffffffffffffffffffffffff8214156138c2576138c16137f2565b5b600182019050919050565b7f4552433732313a2063616c6c6572206973206e6f7420746f6b656e206f776e6560008201527f72206e6f7220617070726f766564000000000000000000000000000000000000602082015250565b6000613929602e83612e8d565b9150613934826138cd565b604082019050919050565b600060208201905081810360008301526139588161391c565b9050919050565b7f455243373231456e756d657261626c653a206f776e657220696e646578206f7560008201527f74206f6620626f756e6473000000000000000000000000000000000000000000602082015250565b60006139bb602b83612e8d565b91506139c68261395f565b604082019050919050565b600060208201905081810360008301526139ea816139ae565b9050919050565b7f42616c616e6365206973207a65726f0000000000000000000000000000000000600082015250565b6000613a27600f83612e8d565b9150613a32826139f1565b602082019050919050565b60006020820190508181036000830152613a5681613a1a565b9050919050565b7f455243373231456e756d657261626c653a20676c6f62616c20696e646578206f60008201527f7574206f6620626f756e64730000000000000000000000000000000000000000602082015250565b6000613ab9602c83612e8d565b9150613ac482613a5d565b604082019050919050565b60006020820190508181036000830152613ae881613aac565b9050919050565b7f4552433732313a20696e76616c696420746f6b656e2049440000000000000000600082015250565b6000613b25601883612e8d565b9150613b3082613aef565b602082019050919050565b60006020820190508181036000830152613b5481613b18565b9050919050565b7f4552433732313a2061646472657373207a65726f206973206e6f74206120766160008201527f6c6964206f776e65720000000000000000000000000000000000000000000000602082015250565b6000613bb7602983612e8d565b9150613bc282613b5b565b604082019050919050565b60006020820190508181036000830152613be681613baa565b9050919050565b6000613bf882612f3d565b9150613c0383612f3d565b9250817fffffffffffffffffffffffffffffffffffffffffffffffffffffffffffffffff0483118215151615613c3c57613c3b6137f2565b5b828202905092915050565b6000613c5282612f3d565b9150613c5d83612f3d565b9250827fffffffffffffffffffffffffffffffffffffffffffffffffffffffffffffffff03821115613c9257613c916137f2565b5b828201905092915050565b7f4552433732314d657461646174613a2055524920717565727920666f72206e6f60008201527f6e6578697374656e7420746f6b656e0000000000000000000000000000000000602082015250565b6000613cf9602f83612e8d565b9150613d0482613c9d565b604082019050919050565b60006020820190508181036000830152613d2881613cec565b9050919050565b600081905092915050565b7f697066733a2f2f00000000000000000000000000000000000000000000000000600082015250565b6000613d70600783613d2f565b9150613d7b82613d3a565b600782019050919050565b60008190508160005260206000209050919050565b60008154613da88161359e565b613db28186613d2f565b94506001821660008114613dcd5760018114613dde57613e11565b60ff19831686528186019350613e11565b613de785613d86565b60005b83811015613e0957815481890152600182019150602081019050613dea565b838801955050505b50505092915050565b6000613e2582613d63565b9150613e318284613d9b565b915081905092915050565b7f7b00000000000000000000000000000000000000000000000000000000000000600082015250565b6000613e72600183613d2f565b9150613e7d82613e3c565b600182019050919050565b7f226e616d65223a20220000000000000000000000000000000000000000000000600082015250565b6000613ebe600983613d2f565b9150613ec982613e88565b600982019050919050565b7f2023000000000000000000000000000000000000000000000000000000000000600082015250565b6000613f0a600283613d2f565b9150613f1582613ed4565b600282019050919050565b6000613f2b82612e82565b613f358185613d2f565b9350613f45818560208601612e9e565b80840191505092915050565b7f222c000000000000000000000000000000000000000000000000000000000000600082015250565b6000613f87600283613d2f565b9150613f9282613f51565b600282019050919050565b7f22696d6167655f64617461223a20220000000000000000000000000000000000600082015250565b6000613fd3600f83613d2f565b9150613fde82613f9d565b600f82019050919050565b7f2261747472696275746573223a205b7b2274726169745f74797065223a20225260008201527f616e6b222c202276616c7565223a200000000000000000000000000000000000602082015250565b6000614045602f83613d2f565b915061405082613fe9565b602f82019050919050565b7f7d2c000000000000000000000000000000000000000000000000000000000000600082015250565b6000614091600283613d2f565b915061409c8261405b565b600282019050919050565b7f7b2274726169745f74797065223a202247616d65222c202276616c7565223a20600082015250565b60006140dd602083613d2f565b91506140e8826140a7565b602082019050919050565b7f7d5d000000000000000000000000000000000000000000000000000000000000600082015250565b6000614129600283613d2f565b9150614134826140f3565b600282019050919050565b7f7d00000000000000000000000000000000000000000000000000000000000000600082015250565b6000614175600183613d2f565b91506141808261413f565b600182019050919050565b600061419682613e65565b91506141a182613eb1565b91506141ad8288613d9b565b91506141b882613efd565b91506141c48287613f20565b91506141cf82613f7a565b91506141da82613fc6565b91506141e68286613f20565b91506141f182613f7a565b91506141fc82614038565b91506142088285613f20565b915061421382614084565b915061421e826140d0565b915061422a8284613f20565b91506142358261411c565b915061424082614168565b91508190509695505050505050565b7f646174613a6170706c69636174696f6e2f6a736f6e3b6261736536342c000000600082015250565b6000614285601d83613d2f565b91506142908261424f565b601d82019050919050565b60006142a682614278565b91506142b28284613f20565b915081905092915050565b7f4f776e61626c653a206e6577206f776e657220697320746865207a65726f206160008201527f6464726573730000000000000000000000000000000000000000000000000000602082015250565b6000614319602683612e8d565b9150614324826142bd565b604082019050919050565b600060208201905081810360008301526143488161430c565b9050919050565b7f19457468657265756d205369676e6564204d6573736167653a0a333200000000600082015250565b6000614385601c83613d2f565b91506143908261434f565b601c82019050919050565b6000819050919050565b6143b66143b182613068565b61439b565b82525050565b60006143c782614378565b91506143d382846143a5565b60208201915081905092915050565b7f4552433732313a207472616e736665722066726f6d20696e636f72726563742060008201527f6f776e6572000000000000000000000000000000000000000000000000000000602082015250565b600061443e602583612e8d565b9150614449826143e2565b604082019050919050565b6000602082019050818103600083015261446d81614431565b9050919050565b7f4552433732313a207472616e7366657220746f20746865207a65726f2061646460008201527f7265737300000000000000000000000000000000000000000000000000000000602082015250565b60006144d0602483612e8d565b91506144db82614474565b604082019050919050565b600060208201905081810360008301526144ff816144c3565b9050919050565b7f4f776e61626c653a2063616c6c6572206973206e6f7420746865206f776e6572600082015250565b600061453c602083612e8d565b915061454782614506565b602082019050919050565b6000602082019050818103600083015261456b8161452f565b9050919050565b7f4552433732313a20617070726f766520746f2063616c6c657200000000000000600082015250565b60006145a8601983612e8d565b91506145b382614572565b602082019050919050565b600060208201905081810360008301526145d78161459b565b9050919050565b7f4552433732313a207472616e7366657220746f206e6f6e20455243373231526560008201527f63656976657220696d706c656d656e7465720000000000000000000000000000602082015250565b600061463a603283612e8d565b9150614645826145de565b604082019050919050565b600060208201905081810360008301526146698161462d565b9050919050565b7f4e487b7100000000000000000000000000000000000000000000000000000000600052601260045260246000fd5b60006146aa82612f3d565b91506146b583612f3d565b9250826146c5576146c4614670565b5b828204905092915050565b60006146db82612f3d565b91506146e683612f3d565b9250826146f6576146f5614670565b5b828206905092915050565b7f4e487b7100000000000000000000000000000000000000000000000000000000600052602160045260246000fd5b7f45434453413a20696e76616c6964207369676e61747572650000000000000000600082015250565b6000614766601883612e8d565b915061477182614730565b602082019050919050565b6000602082019050818103600083015261479581614759565b9050919050565b7f45434453413a20696e76616c6964207369676e6174757265206c656e67746800600082015250565b60006147d2601f83612e8d565b91506147dd8261479c565b602082019050919050565b60006020820190508181036000830152614801816147c5565b9050919050565b7f45434453413a20696e76616c6964207369676e6174757265202773272076616c60008201527f7565000000000000000000000000000000000000000000000000000000000000602082015250565b6000614864602283612e8d565b915061486f82614808565b604082019050919050565b6000602082019050818103600083015261489381614857565b9050919050565b7f45434453413a20696e76616c6964207369676e6174757265202776272076616c60008201527f7565000000000000000000000000000000000000000000000000000000000000602082015250565b60006148f6602283612e8d565b91506149018261489a565b604082019050919050565b60006020820190508181036000830152614925816148e9565b9050919050565b7f5061757361626c653a206e6f7420706175736564000000000000000000000000600082015250565b6000614962601483612e8d565b915061496d8261492c565b602082019050919050565b6000602082019050818103600083015261499181614955565b9050919050565b7f5061757361626c653a2070617573656400000000000000000000000000000000600082015250565b60006149ce601083612e8d565b91506149d982614998565b602082019050919050565b600060208201905081810360008301526149fd816149c1565b9050919050565b600081519050919050565b600082825260208201905092915050565b6000614a2b82614a04565b614a358185614a0f565b9350614a45818560208601612e9e565b614a4e81612ed1565b840191505092915050565b6000608082019050614a6e6000830187612fd2565b614a7b6020830186612fd2565b614a88604083018561336f565b8181036060830152614a9a8184614a20565b905095945050505050565b600081519050614ab481612df3565b92915050565b600060208284031215614ad057614acf612dbd565b5b6000614ade84828501614aa5565b91505092915050565b614af081613068565b82525050565b600060ff82169050919050565b614b0c81614af6565b82525050565b6000608082019050614b276000830187614ae7565b614b346020830186614b03565b614b416040830185614ae7565b614b4e6060830184614ae7565b95945050505050565b7f4552433732313a206d696e7420746f20746865207a65726f2061646472657373600082015250565b6000614b8d602083612e8d565b9150614b9882614b57565b602082019050919050565b60006020820190508181036000830152614bbc81614b80565b9050919050565b7f4552433732313a20746f6b656e20616c7265616479206d696e74656400000000600082015250565b6000614bf9601c83612e8d565b9150614c0482614bc3565b602082019050919050565b60006020820190508181036000830152614c2881614bec565b9050919050565b7f4e487b7100000000000000000000000000000000000000000000000000000000600052603160045260246000fdfe4142434445464748494a4b4c4d4e4f505152535455565758595a6162636465666768696a6b6c6d6e6f707172737475767778797a303132333435363738392b2fa264697066735822122019845a3b9a2d4076d5b59d0a75f26c720fa544a116882a88dea28d5a2439a81164736f6c63430008090033",
    "linkReferences": {},
    "deployedLinkReferences": {}
}