{
  "_format": "hh-sol-artifact-1",
  "contractName": "Keyo",
  "sourceName": "contracts/keyo.sol",
  "abi": [
    {
      "inputs": [],
      "stateMutability": "nonpayable",
      "type": "constructor"
    },
    {
      "anonymous": false,
      "inputs": [
        {
          "indexed": true,
          "internalType": "address",
          "name": "owner",
          "type": "address"
        },
        {
          "indexed": true,
          "internalType": "address",
          "name": "approved",
          "type": "address"
        },
        {
          "indexed": true,
          "internalType": "uint256",
          "name": "tokenId",
          "type": "uint256"
        }
      ],
      "name": "Approval",
      "type": "event"
    },
    {
      "anonymous": false,
      "inputs": [
        {
          "indexed": true,
          "internalType": "address",
          "name": "owner",
          "type": "address"
        },
        {
          "indexed": true,
          "internalType": "address",
          "name": "operator",
          "type": "address"
        },
        {
          "indexed": false,
          "internalType": "bool",
          "name": "approved",
          "type": "bool"
        }
      ],
      "name": "ApprovalForAll",
      "type": "event"
    },
    {
      "anonymous": false,
      "inputs": [
        {
          "indexed": true,
          "internalType": "address",
          "name": "previousOwner",
          "type": "address"
        },
        {
          "indexed": true,
          "internalType": "address",
          "name": "newOwner",
          "type": "address"
        }
      ],
      "name": "OwnershipTransferred",
      "type": "event"
    },
    {
      "anonymous": false,
      "inputs": [
        {
          "indexed": false,
          "internalType": "address",
          "name": "account",
          "type": "address"
        }
      ],
      "name": "Paused",
      "type": "event"
    },
    {
      "anonymous": false,
      "inputs": [
        {
          "indexed": true,
          "internalType": "address",
          "name": "from",
          "type": "address"
        },
        {
          "indexed": true,
          "internalType": "address",
          "name": "to",
          "type": "address"
        },
        {
          "indexed": true,
          "internalType": "uint256",
          "name": "tokenId",
          "type": "uint256"
        }
      ],
      "name": "Transfer",
      "type": "event"
    },
    {
      "anonymous": false,
      "inputs": [
        {
          "indexed": false,
          "internalType": "address",
          "name": "account",
          "type": "address"
        }
      ],
      "name": "Unpaused",
      "type": "event"
    },
    {
      "inputs": [],
      "name": "INCREMENT_PRICE",
      "outputs": [
        {
          "internalType": "uint256",
          "name": "",
          "type": "uint256"
        }
      ],
      "stateMutability": "view",
      "type": "function"
    },
    {
      "inputs": [
        {
          "internalType": "address",
          "name": "to",
          "type": "address"
        },
        {
          "internalType": "uint256",
          "name": "tokenId",
          "type": "uint256"
        }
      ],
      "name": "approve",
      "outputs": [],
      "stateMutability": "nonpayable",
      "type": "function"
    },
    {
      "inputs": [
        {
          "internalType": "address",
          "name": "owner",
          "type": "address"
        }
      ],
      "name": "balanceOf",
      "outputs": [
        {
          "internalType": "uint256",
          "name": "",
          "type": "uint256"
        }
      ],
      "stateMutability": "view",
      "type": "function"
    },
    {
      "inputs": [],
      "name": "currentGameId",
      "outputs": [
        {
          "internalType": "uint256",
          "name": "",
          "type": "uint256"
        }
      ],
      "stateMutability": "view",
      "type": "function"
    },
    {
      "inputs": [],
      "name": "currentPrice",
      "outputs": [
        {
          "internalType": "uint256",
          "name": "",
          "type": "uint256"
        }
      ],
      "stateMutability": "view",
      "type": "function"
    },
    {
      "inputs": [
        {
          "internalType": "uint256",
          "name": "",
          "type": "uint256"
        }
      ],
      "name": "games",
      "outputs": [
        {
          "internalType": "uint256",
          "name": "",
          "type": "uint256"
        }
      ],
      "stateMutability": "view",
      "type": "function"
    },
    {
      "inputs": [
        {
          "internalType": "uint256",
          "name": "tokenId",
          "type": "uint256"
        }
      ],
      "name": "getApproved",
      "outputs": [
        {
          "internalType": "address",
          "name": "",
          "type": "address"
        }
      ],
      "stateMutability": "view",
      "type": "function"
    },
    {
      "inputs": [
        {
          "internalType": "address",
          "name": "owner",
          "type": "address"
        },
        {
          "internalType": "address",
          "name": "operator",
          "type": "address"
        }
      ],
      "name": "isApprovedForAll",
      "outputs": [
        {
          "internalType": "bool",
          "name": "",
          "type": "bool"
        }
      ],
      "stateMutability": "view",
      "type": "function"
    },
    {
      "inputs": [],
      "name": "name",
      "outputs": [
        {
          "internalType": "string",
          "name": "",
          "type": "string"
        }
      ],
      "stateMutability": "view",
      "type": "function"
    },
    {
      "inputs": [],
      "name": "owner",
      "outputs": [
        {
          "internalType": "address",
          "name": "",
          "type": "address"
        }
      ],
      "stateMutability": "view",
      "type": "function"
    },
    {
      "inputs": [
        {
          "internalType": "uint256",
          "name": "tokenId",
          "type": "uint256"
        }
      ],
      "name": "ownerOf",
      "outputs": [
        {
          "internalType": "address",
          "name": "",
          "type": "address"
        }
      ],
      "stateMutability": "view",
      "type": "function"
    },
    {
      "inputs": [],
      "name": "pause",
      "outputs": [],
      "stateMutability": "nonpayable",
      "type": "function"
    },
    {
      "inputs": [],
      "name": "paused",
      "outputs": [
        {
          "internalType": "bool",
          "name": "",
          "type": "bool"
        }
      ],
      "stateMutability": "view",
      "type": "function"
    },
    {
      "inputs": [],
      "name": "renounceOwnership",
      "outputs": [],
      "stateMutability": "nonpayable",
      "type": "function"
    },
    {
      "inputs": [
        {
          "internalType": "bytes32",
          "name": "_hash",
          "type": "bytes32"
        },
        {
          "internalType": "string",
          "name": "_name",
          "type": "string"
        },
        {
          "internalType": "string",
          "name": "_image",
          "type": "string"
        },
        {
          "internalType": "bytes",
          "name": "_signature",
          "type": "bytes"
        },
        {
          "internalType": "uint256",
          "name": "gameIdx",
          "type": "uint256"
        }
      ],
      "name": "safeMint",
      "outputs": [],
      "stateMutability": "payable",
      "type": "function"
    },
    {
      "inputs": [
        {
          "internalType": "address",
          "name": "from",
          "type": "address"
        },
        {
          "internalType": "address",
          "name": "to",
          "type": "address"
        },
        {
          "internalType": "uint256",
          "name": "tokenId",
          "type": "uint256"
        }
      ],
      "name": "safeTransferFrom",
      "outputs": [],
      "stateMutability": "nonpayable",
      "type": "function"
    },
    {
      "inputs": [
        {
          "internalType": "address",
          "name": "from",
          "type": "address"
        },
        {
          "internalType": "address",
          "name": "to",
          "type": "address"
        },
        {
          "internalType": "uint256",
          "name": "tokenId",
          "type": "uint256"
        },
        {
          "internalType": "bytes",
          "name": "data",
          "type": "bytes"
        }
      ],
      "name": "safeTransferFrom",
      "outputs": [],
      "stateMutability": "nonpayable",
      "type": "function"
    },
    {
      "inputs": [
        {
          "internalType": "address",
          "name": "operator",
          "type": "address"
        },
        {
          "internalType": "bool",
          "name": "approved",
          "type": "bool"
        }
      ],
      "name": "setApprovalForAll",
      "outputs": [],
      "stateMutability": "nonpayable",
      "type": "function"
    },
    {
      "inputs": [
        {
          "internalType": "bytes4",
          "name": "interfaceId",
          "type": "bytes4"
        }
      ],
      "name": "supportsInterface",
      "outputs": [
        {
          "internalType": "bool",
          "name": "",
          "type": "bool"
        }
      ],
      "stateMutability": "view",
      "type": "function"
    },
    {
      "inputs": [],
      "name": "symbol",
      "outputs": [
        {
          "internalType": "string",
          "name": "",
          "type": "string"
        }
      ],
      "stateMutability": "view",
      "type": "function"
    },
    {
      "inputs": [
        {
          "internalType": "uint256",
          "name": "index",
          "type": "uint256"
        }
      ],
      "name": "tokenByIndex",
      "outputs": [
        {
          "internalType": "uint256",
          "name": "",
          "type": "uint256"
        }
      ],
      "stateMutability": "view",
      "type": "function"
    },
    {
      "inputs": [
        {
          "internalType": "address",
          "name": "owner",
          "type": "address"
        },
        {
          "internalType": "uint256",
          "name": "index",
          "type": "uint256"
        }
      ],
      "name": "tokenOfOwnerByIndex",
      "outputs": [
        {
          "internalType": "uint256",
          "name": "",
          "type": "uint256"
        }
      ],
      "stateMutability": "view",
      "type": "function"
    },
    {
      "inputs": [
        {
          "internalType": "uint256",
          "name": "tokenId",
          "type": "uint256"
        }
      ],
      "name": "tokenURI",
      "outputs": [
        {
          "internalType": "string",
          "name": "",
          "type": "string"
        }
      ],
      "stateMutability": "view",
      "type": "function"
    },
    {
      "inputs": [],
      "name": "totalSupply",
      "outputs": [
        {
          "internalType": "uint256",
          "name": "",
          "type": "uint256"
        }
      ],
      "stateMutability": "view",
      "type": "function"
    },
    {
      "inputs": [
        {
          "internalType": "address",
          "name": "from",
          "type": "address"
        },
        {
          "internalType": "address",
          "name": "to",
          "type": "address"
        },
        {
          "internalType": "uint256",
          "name": "tokenId",
          "type": "uint256"
        }
      ],
      "name": "transferFrom",
      "outputs": [],
      "stateMutability": "nonpayable",
      "type": "function"
    },
    {
      "inputs": [
        {
          "internalType": "address",
          "name": "newOwner",
          "type": "address"
        }
      ],
      "name": "transferOwnership",
      "outputs": [],
      "stateMutability": "nonpayable",
      "type": "function"
    },
    {
      "inputs": [],
      "name": "unpause",
      "outputs": [],
      "stateMutability": "nonpayable",
      "type": "function"
    },
    {
      "inputs": [],
      "name": "withdraw",
      "outputs": [],
      "stateMutability": "nonpayable",
      "type": "function"
    }
  ],
  "bytecode": "0x6080604052662386f26fc10000600f553480156200001c57600080fd5b506040518060400160405280600481526020017f4b65796f000000000000000000000000000000000000000000000000000000008152506040518060400160405280600381526020017f4b594f000000000000000000000000000000000000000000000000000000000081525081600090816200009a919062000462565b508060019081620000ac919062000462565b5050506000600a60006101000a81548160ff021916908315150217905550620000ea620000de6200011a60201b60201c565b6200012260201b60201c565b600e6000908060018154018082558091505060019003906000526020600020016000909190919091505562000549565b600033905090565b6000600a60019054906101000a900473ffffffffffffffffffffffffffffffffffffffff16905081600a60016101000a81548173ffffffffffffffffffffffffffffffffffffffff021916908373ffffffffffffffffffffffffffffffffffffffff1602179055508173ffffffffffffffffffffffffffffffffffffffff168173ffffffffffffffffffffffffffffffffffffffff167f8be0079c531659141344cd1fd0a4f28419497f9722a3daafe3b4186f6b6457e060405160405180910390a35050565b600081519050919050565b7f4e487b7100000000000000000000000000000000000000000000000000000000600052604160045260246000fd5b7f4e487b7100000000000000000000000000000000000000000000000000000000600052602260045260246000fd5b600060028204905060018216806200026a57607f821691505b60208210810362000280576200027f62000222565b5b50919050565b60008190508160005260206000209050919050565b60006020601f8301049050919050565b600082821b905092915050565b600060088302620002ea7fffffffffffffffffffffffffffffffffffffffffffffffffffffffffffffffff82620002ab565b620002f68683620002ab565b95508019841693508086168417925050509392505050565b6000819050919050565b6000819050919050565b6000620003436200033d62000337846200030e565b62000318565b6200030e565b9050919050565b6000819050919050565b6200035f8362000322565b620003776200036e826200034a565b848454620002b8565b825550505050565b600090565b6200038e6200037f565b6200039b81848462000354565b505050565b5b81811015620003c357620003b760008262000384565b600181019050620003a1565b5050565b601f8211156200041257620003dc8162000286565b620003e7846200029b565b81016020851015620003f7578190505b6200040f62000406856200029b565b830182620003a0565b50505b505050565b600082821c905092915050565b6000620004376000198460080262000417565b1980831691505092915050565b600062000452838362000424565b9150826002028217905092915050565b6200046d82620001e8565b67ffffffffffffffff811115620004895762000488620001f3565b5b62000495825462000251565b620004a2828285620003c7565b600060209050601f831160018114620004da5760008415620004c5578287015190505b620004d1858262000444565b86555062000541565b601f198416620004ea8662000286565b60005b828110156200051457848901518255600182019150602085019450602081019050620004ed565b8683101562000534578489015162000530601f89168262000424565b8355505b6001600288020188555050505b505050505050565b6150ce80620005596000396000f3fe6080604052600436106101b75760003560e01c80635c975abb116100ec5780639d1b464a1161008a578063c87b56dd11610064578063c87b56dd146105d9578063e985e9c514610616578063f2fde38b14610653578063fcc815331461067c576101b7565b80639d1b464a1461055c578063a22cb46514610587578063b88d4fde146105b0576101b7565b8063715018a6116100c6578063715018a6146104d85780638456cb59146104ef5780638da5cb5b1461050657806395d89b4114610531576101b7565b80635c975abb146104335780636352211e1461045e57806370a082311461049b576101b7565b80632f745c591161015957806342842e0e1161013357806342842e0e1461038657806346c65d73146103af5780634f6ccce7146103cb578063536a3ddc14610408576101b7565b80632f745c591461031b5780633ccfd60b146103585780633f4ba83a1461036f576101b7565b8063095ea7b311610195578063095ea7b314610261578063117a5b901461028a57806318160ddd146102c757806323b872dd146102f2576101b7565b806301ffc9a7146101bc57806306fdde03146101f9578063081812fc14610224575b600080fd5b3480156101c857600080fd5b506101e360048036038101906101de9190612ee9565b6106a7565b6040516101f09190612f31565b60405180910390f35b34801561020557600080fd5b5061020e6106b9565b60405161021b9190612fdc565b60405180910390f35b34801561023057600080fd5b5061024b60048036038101906102469190613034565b61074b565b60405161025891906130a2565b60405180910390f35b34801561026d57600080fd5b50610288600480360381019061028391906130e9565b610791565b005b34801561029657600080fd5b506102b160048036038101906102ac9190613034565b6108a8565b6040516102be9190613138565b60405180910390f35b3480156102d357600080fd5b506102dc6108cc565b6040516102e99190613138565b60405180910390f35b3480156102fe57600080fd5b5061031960048036038101906103149190613153565b6108d9565b005b34801561032757600080fd5b50610342600480360381019061033d91906130e9565b610939565b60405161034f9190613138565b60405180910390f35b34801561036457600080fd5b5061036d6109de565b005b34801561037b57600080fd5b50610384610a79565b005b34801561039257600080fd5b506103ad60048036038101906103a89190613153565b610a8b565b005b6103c960048036038101906103c491906133b2565b610aab565b005b3480156103d757600080fd5b506103f260048036038101906103ed9190613034565b610db4565b6040516103ff9190613138565b60405180910390f35b34801561041457600080fd5b5061041d610e25565b60405161042a9190613138565b60405180910390f35b34801561043f57600080fd5b50610448610e3e565b6040516104559190612f31565b60405180910390f35b34801561046a57600080fd5b5061048560048036038101906104809190613034565b610e55565b60405161049291906130a2565b60405180910390f35b3480156104a757600080fd5b506104c260048036038101906104bd9190613481565b610f06565b6040516104cf9190613138565b60405180910390f35b3480156104e457600080fd5b506104ed610fbd565b005b3480156104fb57600080fd5b50610504610fd1565b005b34801561051257600080fd5b5061051b610fe3565b60405161052891906130a2565b60405180910390f35b34801561053d57600080fd5b5061054661100d565b6040516105539190612fdc565b60405180910390f35b34801561056857600080fd5b5061057161109f565b60405161057e9190613138565b60405180910390f35b34801561059357600080fd5b506105ae60048036038101906105a991906134da565b6110ef565b005b3480156105bc57600080fd5b506105d760048036038101906105d2919061351a565b611105565b005b3480156105e557600080fd5b5061060060048036038101906105fb9190613034565b611167565b60405161060d9190612fdc565b60405180910390f35b34801561062257600080fd5b5061063d6004803603810190610638919061359d565b611425565b60405161064a9190612f31565b60405180910390f35b34801561065f57600080fd5b5061067a60048036038101906106759190613481565b6114b9565b005b34801561068857600080fd5b5061069161153c565b60405161069e9190613138565b60405180910390f35b60006106b282611542565b9050919050565b6060600080546106c89061360c565b80601f01602080910402602001604051908101604052809291908181526020018280546106f49061360c565b80156107415780601f1061071657610100808354040283529160200191610741565b820191906000526020600020905b81548152906001019060200180831161072457829003601f168201915b5050505050905090565b6000610756826115bc565b6004600083815260200190815260200160002060009054906101000a900473ffffffffffffffffffffffffffffffffffffffff169050919050565b600061079c82610e55565b90508073ffffffffffffffffffffffffffffffffffffffff168373ffffffffffffffffffffffffffffffffffffffff160361080c576040517f08c379a0000000000000000000000000000000000000000000000000000000008152600401610803906136af565b60405180910390fd5b8073ffffffffffffffffffffffffffffffffffffffff1661082b611607565b73ffffffffffffffffffffffffffffffffffffffff16148061085a575061085981610854611607565b611425565b5b610899576040517f08c379a000000000000000000000000000000000000000000000000000000000815260040161089090613741565b60405180910390fd5b6108a3838361160f565b505050565b600e81815481106108b857600080fd5b906000526020600020016000915090505481565b6000600880549050905090565b6108ea6108e4611607565b826116c8565b610929576040517f08c379a0000000000000000000000000000000000000000000000000000000008152600401610920906137d3565b60405180910390fd5b61093483838361175d565b505050565b600061094483610f06565b8210610985576040517f08c379a000000000000000000000000000000000000000000000000000000000815260040161097c90613865565b60405180910390fd5b600660008473ffffffffffffffffffffffffffffffffffffffff1673ffffffffffffffffffffffffffffffffffffffff168152602001908152602001600020600083815260200190815260200160002054905092915050565b6109e66119c3565b60004711610a29576040517f08c379a0000000000000000000000000000000000000000000000000000000008152600401610a20906138d1565b60405180910390fd5b610a31610fe3565b73ffffffffffffffffffffffffffffffffffffffff166108fc479081150290604051600060405180830381858888f19350505050158015610a76573d6000803e3d6000fd5b50565b610a816119c3565b610a89611a41565b565b610aa683838360405180602001604052806000815250611105565b505050565b610ab3610fe3565b73ffffffffffffffffffffffffffffffffffffffff16610adb610ad587611aa4565b84611ad4565b73ffffffffffffffffffffffffffffffffffffffff1614610b31576040517f08c379a0000000000000000000000000000000000000000000000000000000008152600401610b2890613963565b60405180910390fd5b6000600c83604051610b4391906139ca565b908152602001604051809103902060009054906101000a900460ff1660ff1614610ba2576040517f08c379a0000000000000000000000000000000000000000000000000000000008152600401610b9990613a53565b60405180910390fd5b60006001600e80549050610bb69190613aa2565b8211610bc957610bc461109f565b610bcc565b60005b905080341015610c11576040517f08c379a0000000000000000000000000000000000000000000000000000000008152600401610c0890613b22565b60405180910390fd5b6001600e80549050610c239190613aa2565b821115610c5557600e600090806001815401808255809150506001900390600052602060002001600090919091909150555b6000610c61600d611afb565b9050610c6d600d611b09565b600e6001600e80549050610c819190613aa2565b81548110610c9257610c91613b42565b5b906000526020600020016000815480929190610cad90613b71565b919050555060405180608001604052806001600e80549050610ccf9190613aa2565b8152602001600e6001600e80549050610ce89190613aa2565b81548110610cf957610cf8613b42565b5b9060005260206000200154815260200187815260200186815250600b600083815260200190815260200160002060008201518160000155602082015181600101556040820151816002019081610d4f9190613d65565b506060820151816003019081610d659190613d65565b509050506001600c85604051610d7b91906139ca565b908152602001604051809103902060006101000a81548160ff021916908360ff160217905550610dab3382611b1f565b50505050505050565b6000610dbe6108cc565b8210610dff576040517f08c379a0000000000000000000000000000000000000000000000000000000008152600401610df690613ea9565b60405180910390fd5b60088281548110610e1357610e12613b42565b5b90600052602060002001549050919050565b60006001600e80549050610e399190613aa2565b905090565b6000600a60009054906101000a900460ff16905090565b6000806002600084815260200190815260200160002060009054906101000a900473ffffffffffffffffffffffffffffffffffffffff169050600073ffffffffffffffffffffffffffffffffffffffff168173ffffffffffffffffffffffffffffffffffffffff1603610efd576040517f08c379a0000000000000000000000000000000000000000000000000000000008152600401610ef490613f15565b60405180910390fd5b80915050919050565b60008073ffffffffffffffffffffffffffffffffffffffff168273ffffffffffffffffffffffffffffffffffffffff1603610f76576040517f08c379a0000000000000000000000000000000000000000000000000000000008152600401610f6d90613fa7565b60405180910390fd5b600360008373ffffffffffffffffffffffffffffffffffffffff1673ffffffffffffffffffffffffffffffffffffffff168152602001908152602001600020549050919050565b610fc56119c3565b610fcf6000611b3d565b565b610fd96119c3565b610fe1611c03565b565b6000600a60019054906101000a900473ffffffffffffffffffffffffffffffffffffffff16905090565b60606001805461101c9061360c565b80601f01602080910402602001604051908101604052809291908181526020018280546110489061360c565b80156110955780601f1061106a57610100808354040283529160200191611095565b820191906000526020600020905b81548152906001019060200180831161107857829003601f168201915b5050505050905090565b6000600e6001600e805490506110b59190613aa2565b815481106110c6576110c5613b42565b5b9060005260206000200154600f546110de9190613fc7565b60006110ea9190614021565b905090565b6111016110fa611607565b8383611c66565b5050565b611116611110611607565b836116c8565b611155576040517f08c379a000000000000000000000000000000000000000000000000000000000815260040161114c906137d3565b60405180910390fd5b61116184848484611dd2565b50505050565b606061117282611e2e565b6111b1576040517f08c379a00000000000000000000000000000000000000000000000000000000081526004016111a8906140c7565b60405180910390fd5b6000600b600084815260200190815260200160002060405180608001604052908160008201548152602001600182015481526020016002820180546111f59061360c565b80601f01602080910402602001604051908101604052809291908181526020018280546112219061360c565b801561126e5780601f106112435761010080835404028352916020019161126e565b820191906000526020600020905b81548152906001019060200180831161125157829003601f168201915b505050505081526020016003820180546112879061360c565b80601f01602080910402602001604051908101604052809291908181526020018280546112b39061360c565b80156113005780601f106112d557610100808354040283529160200191611300565b820191906000526020600020905b8154815290600101906020018083116112e357829003601f168201915b505050505081525050905060006001600e8054905061131f9190613aa2565b826000015110611364576040518060400160405280600581526020017f3f3f3f3f3f00000000000000000000000000000000000000000000000000000081525061136a565b81604001515b905060008260600151604051602001611383919061416f565b604051602081830303815290604052905060006113a38460000151611e9a565b836113b18660200151611e9a565b846113bf8860200151611e9a565b6113cc8960000151611e9a565b6040516020016113e19695949392919061456d565b60405160208183030381529060405290506113fb81611ffa565b60405160200161140b91906146a0565b604051602081830303815290604052945050505050919050565b6000600560008473ffffffffffffffffffffffffffffffffffffffff1673ffffffffffffffffffffffffffffffffffffffff16815260200190815260200160002060008373ffffffffffffffffffffffffffffffffffffffff1673ffffffffffffffffffffffffffffffffffffffff16815260200190815260200160002060009054906101000a900460ff16905092915050565b6114c16119c3565b600073ffffffffffffffffffffffffffffffffffffffff168173ffffffffffffffffffffffffffffffffffffffff1603611530576040517f08c379a000000000000000000000000000000000000000000000000000000000815260040161152790614734565b60405180910390fd5b61153981611b3d565b50565b600f5481565b60007f780e9d63000000000000000000000000000000000000000000000000000000007bffffffffffffffffffffffffffffffffffffffffffffffffffffffff1916827bffffffffffffffffffffffffffffffffffffffffffffffffffffffff191614806115b557506115b48261215d565b5b9050919050565b6115c581611e2e565b611604576040517f08c379a00000000000000000000000000000000000000000000000000000000081526004016115fb90613f15565b60405180910390fd5b50565b600033905090565b816004600083815260200190815260200160002060006101000a81548173ffffffffffffffffffffffffffffffffffffffff021916908373ffffffffffffffffffffffffffffffffffffffff160217905550808273ffffffffffffffffffffffffffffffffffffffff1661168283610e55565b73ffffffffffffffffffffffffffffffffffffffff167f8c5be1e5ebec7d5bd14f71427d1e84f3dd0314c0f7b2291e5b200ac8c7c3b92560405160405180910390a45050565b6000806116d483610e55565b90508073ffffffffffffffffffffffffffffffffffffffff168473ffffffffffffffffffffffffffffffffffffffff16148061171657506117158185611425565b5b8061175457508373ffffffffffffffffffffffffffffffffffffffff1661173c8461074b565b73ffffffffffffffffffffffffffffffffffffffff16145b91505092915050565b8273ffffffffffffffffffffffffffffffffffffffff1661177d82610e55565b73ffffffffffffffffffffffffffffffffffffffff16146117d3576040517f08c379a00000000000000000000000000000000000000000000000000000000081526004016117ca906147c6565b60405180910390fd5b600073ffffffffffffffffffffffffffffffffffffffff168273ffffffffffffffffffffffffffffffffffffffff1603611842576040517f08c379a000000000000000000000000000000000000000000000000000000000815260040161183990614858565b60405180910390fd5b61184d83838361223f565b61185860008261160f565b6001600360008573ffffffffffffffffffffffffffffffffffffffff1673ffffffffffffffffffffffffffffffffffffffff16815260200190815260200160002060008282546118a89190613aa2565b925050819055506001600360008473ffffffffffffffffffffffffffffffffffffffff1673ffffffffffffffffffffffffffffffffffffffff16815260200190815260200160002060008282546118ff9190614021565b92505081905550816002600083815260200190815260200160002060006101000a81548173ffffffffffffffffffffffffffffffffffffffff021916908373ffffffffffffffffffffffffffffffffffffffff160217905550808273ffffffffffffffffffffffffffffffffffffffff168473ffffffffffffffffffffffffffffffffffffffff167fddf252ad1be2c89b69c2b068fc378daa952ba7f163c4a11628f55a4df523b3ef60405160405180910390a46119be838383612257565b505050565b6119cb611607565b73ffffffffffffffffffffffffffffffffffffffff166119e9610fe3565b73ffffffffffffffffffffffffffffffffffffffff1614611a3f576040517f08c379a0000000000000000000000000000000000000000000000000000000008152600401611a36906148c4565b60405180910390fd5b565b611a4961225c565b6000600a60006101000a81548160ff0219169083151502179055507f5db9ee0a495bf2e6ff9c91a7834c1ba4fdd244a5e8aa4e537bd38aeae4b073aa611a8d611607565b604051611a9a91906130a2565b60405180910390a1565b600081604051602001611ab79190614951565b604051602081830303815290604052805190602001209050919050565b6000806000611ae385856122a5565b91509150611af0816122f6565b819250505092915050565b600081600001549050919050565b6001816000016000828254019250508190555050565b611b398282604051806020016040528060008152506124c2565b5050565b6000600a60019054906101000a900473ffffffffffffffffffffffffffffffffffffffff16905081600a60016101000a81548173ffffffffffffffffffffffffffffffffffffffff021916908373ffffffffffffffffffffffffffffffffffffffff1602179055508173ffffffffffffffffffffffffffffffffffffffff168173ffffffffffffffffffffffffffffffffffffffff167f8be0079c531659141344cd1fd0a4f28419497f9722a3daafe3b4186f6b6457e060405160405180910390a35050565b611c0b61251d565b6001600a60006101000a81548160ff0219169083151502179055507f62e78cea01bee320cd4e420270b5ea74000d11b0c9f74754ebdbfc544b05a258611c4f611607565b604051611c5c91906130a2565b60405180910390a1565b8173ffffffffffffffffffffffffffffffffffffffff168373ffffffffffffffffffffffffffffffffffffffff1603611cd4576040517f08c379a0000000000000000000000000000000000000000000000000000000008152600401611ccb906149c3565b60405180910390fd5b80600560008573ffffffffffffffffffffffffffffffffffffffff1673ffffffffffffffffffffffffffffffffffffffff16815260200190815260200160002060008473ffffffffffffffffffffffffffffffffffffffff1673ffffffffffffffffffffffffffffffffffffffff16815260200190815260200160002060006101000a81548160ff0219169083151502179055508173ffffffffffffffffffffffffffffffffffffffff168373ffffffffffffffffffffffffffffffffffffffff167f17307eab39ab6107e8899845ad3d59bd9653f200f220920489ca2b5937696c3183604051611dc59190612f31565b60405180910390a3505050565b611ddd84848461175d565b611de984848484612567565b611e28576040517f08c379a0000000000000000000000000000000000000000000000000000000008152600401611e1f90614a55565b60405180910390fd5b50505050565b60008073ffffffffffffffffffffffffffffffffffffffff166002600084815260200190815260200160002060009054906101000a900473ffffffffffffffffffffffffffffffffffffffff1673ffffffffffffffffffffffffffffffffffffffff1614159050919050565b606060008203611ee1576040518060400160405280600181526020017f30000000000000000000000000000000000000000000000000000000000000008152509050611ff5565b600082905060005b60008214611f13578080611efc90613b71565b915050600a82611f0c9190614aa4565b9150611ee9565b60008167ffffffffffffffff811115611f2f57611f2e6131e6565b5b6040519080825280601f01601f191660200182016040528015611f615781602001600182028036833780820191505090505b5090505b60008514611fee57600182611f7a9190613aa2565b9150600a85611f899190614ad5565b6030611f959190614021565b60f81b818381518110611fab57611faa613b42565b5b60200101907effffffffffffffffffffffffffffffffffffffffffffffffffffffffffffff1916908160001a905350600a85611fe79190614aa4565b9450611f65565b8093505050505b919050565b6060600082510361201c57604051806020016040528060008152509050612158565b6000604051806060016040528060408152602001615059604091399050600060036002855161204b9190614021565b6120559190614aa4565b60046120619190613fc7565b67ffffffffffffffff81111561207a576120796131e6565b5b6040519080825280601f01601f1916602001820160405280156120ac5781602001600182028036833780820191505090505b509050600182016020820185865187015b80821015612118576003820191508151603f8160121c168501518453600184019350603f81600c1c168501518453600184019350603f8160061c168501518453600184019350603f81168501518453600184019350506120bd565b505060038651066001811461213457600281146121475761214f565b603d6001830353603d600283035361214f565b603d60018303535b50505080925050505b919050565b60007f80ac58cd000000000000000000000000000000000000000000000000000000007bffffffffffffffffffffffffffffffffffffffffffffffffffffffff1916827bffffffffffffffffffffffffffffffffffffffffffffffffffffffff1916148061222857507f5b5e139f000000000000000000000000000000000000000000000000000000007bffffffffffffffffffffffffffffffffffffffffffffffffffffffff1916827bffffffffffffffffffffffffffffffffffffffffffffffffffffffff1916145b806122385750612237826126ee565b5b9050919050565b61224761251d565b612252838383612758565b505050565b505050565b612264610e3e565b6122a3576040517f08c379a000000000000000000000000000000000000000000000000000000000815260040161229a90614b52565b60405180910390fd5b565b60008060418351036122e65760008060006020860151925060408601519150606086015160001a90506122da8782858561286a565b945094505050506122ef565b60006002915091505b9250929050565b6000600481111561230a57612309614b72565b5b81600481111561231d5761231c614b72565b5b03156124bf576001600481111561233757612336614b72565b5b81600481111561234a57612349614b72565b5b0361238a576040517f08c379a000000000000000000000000000000000000000000000000000000000815260040161238190614bed565b60405180910390fd5b6002600481111561239e5761239d614b72565b5b8160048111156123b1576123b0614b72565b5b036123f1576040517f08c379a00000000000000000000000000000000000000000000000000000000081526004016123e890614c59565b60405180910390fd5b6003600481111561240557612404614b72565b5b81600481111561241857612417614b72565b5b03612458576040517f08c379a000000000000000000000000000000000000000000000000000000000815260040161244f90614ceb565b60405180910390fd5b60048081111561246b5761246a614b72565b5b81600481111561247e5761247d614b72565b5b036124be576040517f08c379a00000000000000000000000000000000000000000000000000000000081526004016124b590614d7d565b60405180910390fd5b5b50565b6124cc8383612976565b6124d96000848484612567565b612518576040517f08c379a000000000000000000000000000000000000000000000000000000000815260040161250f90614a55565b60405180910390fd5b505050565b612525610e3e565b15612565576040517f08c379a000000000000000000000000000000000000000000000000000000000815260040161255c90614de9565b60405180910390fd5b565b60006125888473ffffffffffffffffffffffffffffffffffffffff16612b4f565b156126e1578373ffffffffffffffffffffffffffffffffffffffff1663150b7a026125b1611607565b8786866040518563ffffffff1660e01b81526004016125d39493929190614e53565b6020604051808303816000875af192505050801561260f57506040513d601f19601f8201168201806040525081019061260c9190614eb4565b60015b612691573d806000811461263f576040519150601f19603f3d011682016040523d82523d6000602084013e612644565b606091505b506000815103612689576040517f08c379a000000000000000000000000000000000000000000000000000000000815260040161268090614a55565b60405180910390fd5b805181602001fd5b63150b7a0260e01b7bffffffffffffffffffffffffffffffffffffffffffffffffffffffff1916817bffffffffffffffffffffffffffffffffffffffffffffffffffffffff1916149150506126e6565b600190505b949350505050565b60007f01ffc9a7000000000000000000000000000000000000000000000000000000007bffffffffffffffffffffffffffffffffffffffffffffffffffffffff1916827bffffffffffffffffffffffffffffffffffffffffffffffffffffffff1916149050919050565b612763838383612b72565b600073ffffffffffffffffffffffffffffffffffffffff168373ffffffffffffffffffffffffffffffffffffffff16036127a5576127a081612b77565b6127e4565b8173ffffffffffffffffffffffffffffffffffffffff168373ffffffffffffffffffffffffffffffffffffffff16146127e3576127e28382612bc0565b5b5b600073ffffffffffffffffffffffffffffffffffffffff168273ffffffffffffffffffffffffffffffffffffffff16036128265761282181612d2d565b612865565b8273ffffffffffffffffffffffffffffffffffffffff168273ffffffffffffffffffffffffffffffffffffffff1614612864576128638282612dfe565b5b5b505050565b6000807f7fffffffffffffffffffffffffffffff5d576e7357a4501ddfe92f46681b20a08360001c11156128a557600060039150915061296d565b601b8560ff16141580156128bd5750601c8560ff1614155b156128cf57600060049150915061296d565b6000600187878787604051600081526020016040526040516128f49493929190614f0c565b6020604051602081039080840390855afa158015612916573d6000803e3d6000fd5b505050602060405103519050600073ffffffffffffffffffffffffffffffffffffffff168173ffffffffffffffffffffffffffffffffffffffff16036129645760006001925092505061296d565b80600092509250505b94509492505050565b600073ffffffffffffffffffffffffffffffffffffffff168273ffffffffffffffffffffffffffffffffffffffff16036129e5576040517f08c379a00000000000000000000000000000000000000000000000000000000081526004016129dc90614f9d565b60405180910390fd5b6129ee81611e2e565b15612a2e576040517f08c379a0000000000000000000000000000000000000000000000000000000008152600401612a2590615009565b60405180910390fd5b612a3a6000838361223f565b6001600360008473ffffffffffffffffffffffffffffffffffffffff1673ffffffffffffffffffffffffffffffffffffffff1681526020019081526020016000206000828254612a8a9190614021565b92505081905550816002600083815260200190815260200160002060006101000a81548173ffffffffffffffffffffffffffffffffffffffff021916908373ffffffffffffffffffffffffffffffffffffffff160217905550808273ffffffffffffffffffffffffffffffffffffffff16600073ffffffffffffffffffffffffffffffffffffffff167fddf252ad1be2c89b69c2b068fc378daa952ba7f163c4a11628f55a4df523b3ef60405160405180910390a4612b4b60008383612257565b5050565b6000808273ffffffffffffffffffffffffffffffffffffffff163b119050919050565b505050565b6008805490506009600083815260200190815260200160002081905550600881908060018154018082558091505060019003906000526020600020016000909190919091505550565b60006001612bcd84610f06565b612bd79190613aa2565b9050600060076000848152602001908152602001600020549050818114612cbc576000600660008673ffffffffffffffffffffffffffffffffffffffff1673ffffffffffffffffffffffffffffffffffffffff168152602001908152602001600020600084815260200190815260200160002054905080600660008773ffffffffffffffffffffffffffffffffffffffff1673ffffffffffffffffffffffffffffffffffffffff168152602001908152602001600020600084815260200190815260200160002081905550816007600083815260200190815260200160002081905550505b6007600084815260200190815260200160002060009055600660008573ffffffffffffffffffffffffffffffffffffffff1673ffffffffffffffffffffffffffffffffffffffff16815260200190815260200160002060008381526020019081526020016000206000905550505050565b60006001600880549050612d419190613aa2565b9050600060096000848152602001908152602001600020549050600060088381548110612d7157612d70613b42565b5b906000526020600020015490508060088381548110612d9357612d92613b42565b5b906000526020600020018190555081600960008381526020019081526020016000208190555060096000858152602001908152602001600020600090556008805480612de257612de1615029565b5b6001900381819060005260206000200160009055905550505050565b6000612e0983610f06565b905081600660008573ffffffffffffffffffffffffffffffffffffffff1673ffffffffffffffffffffffffffffffffffffffff168152602001908152602001600020600083815260200190815260200160002081905550806007600084815260200190815260200160002081905550505050565b6000604051905090565b600080fd5b600080fd5b60007fffffffff0000000000000000000000000000000000000000000000000000000082169050919050565b612ec681612e91565b8114612ed157600080fd5b50565b600081359050612ee381612ebd565b92915050565b600060208284031215612eff57612efe612e87565b5b6000612f0d84828501612ed4565b91505092915050565b60008115159050919050565b612f2b81612f16565b82525050565b6000602082019050612f466000830184612f22565b92915050565b600081519050919050565b600082825260208201905092915050565b60005b83811015612f86578082015181840152602081019050612f6b565b60008484015250505050565b6000601f19601f8301169050919050565b6000612fae82612f4c565b612fb88185612f57565b9350612fc8818560208601612f68565b612fd181612f92565b840191505092915050565b60006020820190508181036000830152612ff68184612fa3565b905092915050565b6000819050919050565b61301181612ffe565b811461301c57600080fd5b50565b60008135905061302e81613008565b92915050565b60006020828403121561304a57613049612e87565b5b60006130588482850161301f565b91505092915050565b600073ffffffffffffffffffffffffffffffffffffffff82169050919050565b600061308c82613061565b9050919050565b61309c81613081565b82525050565b60006020820190506130b76000830184613093565b92915050565b6130c681613081565b81146130d157600080fd5b50565b6000813590506130e3816130bd565b92915050565b60008060408385031215613100576130ff612e87565b5b600061310e858286016130d4565b925050602061311f8582860161301f565b9150509250929050565b61313281612ffe565b82525050565b600060208201905061314d6000830184613129565b92915050565b60008060006060848603121561316c5761316b612e87565b5b600061317a868287016130d4565b935050602061318b868287016130d4565b925050604061319c8682870161301f565b9150509250925092565b6000819050919050565b6131b9816131a6565b81146131c457600080fd5b50565b6000813590506131d6816131b0565b92915050565b600080fd5b600080fd5b7f4e487b7100000000000000000000000000000000000000000000000000000000600052604160045260246000fd5b61321e82612f92565b810181811067ffffffffffffffff8211171561323d5761323c6131e6565b5b80604052505050565b6000613250612e7d565b905061325c8282613215565b919050565b600067ffffffffffffffff82111561327c5761327b6131e6565b5b61328582612f92565b9050602081019050919050565b82818337600083830152505050565b60006132b46132af84613261565b613246565b9050828152602081018484840111156132d0576132cf6131e1565b5b6132db848285613292565b509392505050565b600082601f8301126132f8576132f76131dc565b5b81356133088482602086016132a1565b91505092915050565b600067ffffffffffffffff82111561332c5761332b6131e6565b5b61333582612f92565b9050602081019050919050565b600061335561335084613311565b613246565b905082815260208101848484011115613371576133706131e1565b5b61337c848285613292565b509392505050565b600082601f830112613399576133986131dc565b5b81356133a9848260208601613342565b91505092915050565b600080600080600060a086880312156133ce576133cd612e87565b5b60006133dc888289016131c7565b955050602086013567ffffffffffffffff8111156133fd576133fc612e8c565b5b613409888289016132e3565b945050604086013567ffffffffffffffff81111561342a57613429612e8c565b5b613436888289016132e3565b935050606086013567ffffffffffffffff81111561345757613456612e8c565b5b61346388828901613384565b92505060806134748882890161301f565b9150509295509295909350565b60006020828403121561349757613496612e87565b5b60006134a5848285016130d4565b91505092915050565b6134b781612f16565b81146134c257600080fd5b50565b6000813590506134d4816134ae565b92915050565b600080604083850312156134f1576134f0612e87565b5b60006134ff858286016130d4565b9250506020613510858286016134c5565b9150509250929050565b6000806000806080858703121561353457613533612e87565b5b6000613542878288016130d4565b9450506020613553878288016130d4565b93505060406135648782880161301f565b925050606085013567ffffffffffffffff81111561358557613584612e8c565b5b61359187828801613384565b91505092959194509250565b600080604083850312156135b4576135b3612e87565b5b60006135c2858286016130d4565b92505060206135d3858286016130d4565b9150509250929050565b7f4e487b7100000000000000000000000000000000000000000000000000000000600052602260045260246000fd5b6000600282049050600182168061362457607f821691505b602082108103613637576136366135dd565b5b50919050565b7f4552433732313a20617070726f76616c20746f2063757272656e74206f776e6560008201527f7200000000000000000000000000000000000000000000000000000000000000602082015250565b6000613699602183612f57565b91506136a48261363d565b604082019050919050565b600060208201905081810360008301526136c88161368c565b9050919050565b7f4552433732313a20617070726f76652063616c6c6572206973206e6f7420746f60008201527f6b656e206f776e6572206e6f7220617070726f76656420666f7220616c6c0000602082015250565b600061372b603e83612f57565b9150613736826136cf565b604082019050919050565b6000602082019050818103600083015261375a8161371e565b9050919050565b7f4552433732313a2063616c6c6572206973206e6f7420746f6b656e206f776e6560008201527f72206e6f7220617070726f766564000000000000000000000000000000000000602082015250565b60006137bd602e83612f57565b91506137c882613761565b604082019050919050565b600060208201905081810360008301526137ec816137b0565b9050919050565b7f455243373231456e756d657261626c653a206f776e657220696e646578206f7560008201527f74206f6620626f756e6473000000000000000000000000000000000000000000602082015250565b600061384f602b83612f57565b915061385a826137f3565b604082019050919050565b6000602082019050818103600083015261387e81613842565b9050919050565b7f42616c616e6365206973207a65726f0000000000000000000000000000000000600082015250565b60006138bb600f83612f57565b91506138c682613885565b602082019050919050565b600060208201905081810360008301526138ea816138ae565b9050919050565b7f5665726966696564207369676e617475726520646f6573206e6f74206d61746360008201527f68206f776e657273206164647265737300000000000000000000000000000000602082015250565b600061394d603083612f57565b9150613958826138f1565b604082019050919050565b6000602082019050818103600083015261397c81613940565b9050919050565b600081519050919050565b600081905092915050565b60006139a482613983565b6139ae818561398e565b93506139be818560208601612f68565b80840191505092915050565b60006139d68284613999565b915081905092915050565b7f496e76616c6964207369676e61747572652e20497420686173206265656e207560008201527f736564206265666f72652e000000000000000000000000000000000000000000602082015250565b6000613a3d602b83612f57565b9150613a48826139e1565b604082019050919050565b60006020820190508181036000830152613a6c81613a30565b9050919050565b7f4e487b7100000000000000000000000000000000000000000000000000000000600052601160045260246000fd5b6000613aad82612ffe565b9150613ab883612ffe565b9250828203905081811115613ad057613acf613a73565b5b92915050565b7f4e6f7420656e6f7567682065746865722073656e742e00000000000000000000600082015250565b6000613b0c601683612f57565b9150613b1782613ad6565b602082019050919050565b60006020820190508181036000830152613b3b81613aff565b9050919050565b7f4e487b7100000000000000000000000000000000000000000000000000000000600052603260045260246000fd5b6000613b7c82612ffe565b91507fffffffffffffffffffffffffffffffffffffffffffffffffffffffffffffffff8203613bae57613bad613a73565b5b600182019050919050565b60008190508160005260206000209050919050565b60006020601f8301049050919050565b600082821b905092915050565b600060088302613c1b7fffffffffffffffffffffffffffffffffffffffffffffffffffffffffffffffff82613bde565b613c258683613bde565b95508019841693508086168417925050509392505050565b6000819050919050565b6000613c62613c5d613c5884612ffe565b613c3d565b612ffe565b9050919050565b6000819050919050565b613c7c83613c47565b613c90613c8882613c69565b848454613beb565b825550505050565b600090565b613ca5613c98565b613cb0818484613c73565b505050565b5b81811015613cd457613cc9600082613c9d565b600181019050613cb6565b5050565b601f821115613d1957613cea81613bb9565b613cf384613bce565b81016020851015613d02578190505b613d16613d0e85613bce565b830182613cb5565b50505b505050565b600082821c905092915050565b6000613d3c60001984600802613d1e565b1980831691505092915050565b6000613d558383613d2b565b9150826002028217905092915050565b613d6e82612f4c565b67ffffffffffffffff811115613d8757613d866131e6565b5b613d91825461360c565b613d9c828285613cd8565b600060209050601f831160018114613dcf5760008415613dbd578287015190505b613dc78582613d49565b865550613e2f565b601f198416613ddd86613bb9565b60005b82811015613e0557848901518255600182019150602085019450602081019050613de0565b86831015613e225784890151613e1e601f891682613d2b565b8355505b6001600288020188555050505b505050505050565b7f455243373231456e756d657261626c653a20676c6f62616c20696e646578206f60008201527f7574206f6620626f756e64730000000000000000000000000000000000000000602082015250565b6000613e93602c83612f57565b9150613e9e82613e37565b604082019050919050565b60006020820190508181036000830152613ec281613e86565b9050919050565b7f4552433732313a20696e76616c696420746f6b656e2049440000000000000000600082015250565b6000613eff601883612f57565b9150613f0a82613ec9565b602082019050919050565b60006020820190508181036000830152613f2e81613ef2565b9050919050565b7f4552433732313a2061646472657373207a65726f206973206e6f74206120766160008201527f6c6964206f776e65720000000000000000000000000000000000000000000000602082015250565b6000613f91602983612f57565b9150613f9c82613f35565b604082019050919050565b60006020820190508181036000830152613fc081613f84565b9050919050565b6000613fd282612ffe565b9150613fdd83612ffe565b9250817fffffffffffffffffffffffffffffffffffffffffffffffffffffffffffffffff048311821515161561401657614015613a73565b5b828202905092915050565b600061402c82612ffe565b915061403783612ffe565b925082820190508082111561404f5761404e613a73565b5b92915050565b7f4552433732314d657461646174613a2055524920717565727920666f72206e6f60008201527f6e6578697374656e7420746f6b656e0000000000000000000000000000000000602082015250565b60006140b1602f83612f57565b91506140bc82614055565b604082019050919050565b600060208201905081810360008301526140e0816140a4565b9050919050565b600081905092915050565b7f697066733a2f2f00000000000000000000000000000000000000000000000000600082015250565b60006141286007836140e7565b9150614133826140f2565b600782019050919050565b600061414982612f4c565b61415381856140e7565b9350614163818560208601612f68565b80840191505092915050565b600061417a8261411b565b9150614186828461413e565b915081905092915050565b7f7b00000000000000000000000000000000000000000000000000000000000000600082015250565b60006141c76001836140e7565b91506141d282614191565b600182019050919050565b7f226e616d65223a20220000000000000000000000000000000000000000000000600082015250565b60006142136009836140e7565b915061421e826141dd565b600982019050919050565b7f47616d6520000000000000000000000000000000000000000000000000000000600082015250565b600061425f6005836140e7565b915061426a82614229565b600582019050919050565b7f3a20000000000000000000000000000000000000000000000000000000000000600082015250565b60006142ab6002836140e7565b91506142b682614275565b600282019050919050565b7f2023000000000000000000000000000000000000000000000000000000000000600082015250565b60006142f76002836140e7565b9150614302826142c1565b600282019050919050565b7f222c000000000000000000000000000000000000000000000000000000000000600082015250565b60006143436002836140e7565b915061434e8261430d565b600282019050919050565b7f22696d616765223a202200000000000000000000000000000000000000000000600082015250565b600061438f600a836140e7565b915061439a82614359565b600a82019050919050565b7f2261747472696275746573223a205b7b2274726169745f74797065223a20225260008201527f616e6b222c202276616c7565223a200000000000000000000000000000000000602082015250565b6000614401602f836140e7565b915061440c826143a5565b602f82019050919050565b7f7d2c000000000000000000000000000000000000000000000000000000000000600082015250565b600061444d6002836140e7565b915061445882614417565b600282019050919050565b7f7b2274726169745f74797065223a202247616d65204e756d626572222c20227660008201527f616c7565223a2000000000000000000000000000000000000000000000000000602082015250565b60006144bf6027836140e7565b91506144ca82614463565b602782019050919050565b7f7d5d000000000000000000000000000000000000000000000000000000000000600082015250565b600061450b6002836140e7565b9150614516826144d5565b600282019050919050565b7f7d00000000000000000000000000000000000000000000000000000000000000600082015250565b60006145576001836140e7565b915061456282614521565b600182019050919050565b6000614578826141ba565b915061458382614206565b915061458e82614252565b915061459a828961413e565b91506145a58261429e565b91506145b1828861413e565b91506145bc826142ea565b91506145c8828761413e565b91506145d382614336565b91506145de82614382565b91506145ea828661413e565b91506145f582614336565b9150614600826143f4565b915061460c828561413e565b915061461782614440565b9150614622826144b2565b915061462e828461413e565b9150614639826144fe565b91506146448261454a565b9150819050979650505050505050565b7f646174613a6170706c69636174696f6e2f6a736f6e3b6261736536342c000000600082015250565b600061468a601d836140e7565b915061469582614654565b601d82019050919050565b60006146ab8261467d565b91506146b7828461413e565b915081905092915050565b7f4f776e61626c653a206e6577206f776e657220697320746865207a65726f206160008201527f6464726573730000000000000000000000000000000000000000000000000000602082015250565b600061471e602683612f57565b9150614729826146c2565b604082019050919050565b6000602082019050818103600083015261474d81614711565b9050919050565b7f4552433732313a207472616e736665722066726f6d20696e636f72726563742060008201527f6f776e6572000000000000000000000000000000000000000000000000000000602082015250565b60006147b0602583612f57565b91506147bb82614754565b604082019050919050565b600060208201905081810360008301526147df816147a3565b9050919050565b7f4552433732313a207472616e7366657220746f20746865207a65726f2061646460008201527f7265737300000000000000000000000000000000000000000000000000000000602082015250565b6000614842602483612f57565b915061484d826147e6565b604082019050919050565b6000602082019050818103600083015261487181614835565b9050919050565b7f4f776e61626c653a2063616c6c6572206973206e6f7420746865206f776e6572600082015250565b60006148ae602083612f57565b91506148b982614878565b602082019050919050565b600060208201905081810360008301526148dd816148a1565b9050919050565b7f19457468657265756d205369676e6564204d6573736167653a0a333200000000600082015250565b600061491a601c836140e7565b9150614925826148e4565b601c82019050919050565b6000819050919050565b61494b614946826131a6565b614930565b82525050565b600061495c8261490d565b9150614968828461493a565b60208201915081905092915050565b7f4552433732313a20617070726f766520746f2063616c6c657200000000000000600082015250565b60006149ad601983612f57565b91506149b882614977565b602082019050919050565b600060208201905081810360008301526149dc816149a0565b9050919050565b7f4552433732313a207472616e7366657220746f206e6f6e20455243373231526560008201527f63656976657220696d706c656d656e7465720000000000000000000000000000602082015250565b6000614a3f603283612f57565b9150614a4a826149e3565b604082019050919050565b60006020820190508181036000830152614a6e81614a32565b9050919050565b7f4e487b7100000000000000000000000000000000000000000000000000000000600052601260045260246000fd5b6000614aaf82612ffe565b9150614aba83612ffe565b925082614aca57614ac9614a75565b5b828204905092915050565b6000614ae082612ffe565b9150614aeb83612ffe565b925082614afb57614afa614a75565b5b828206905092915050565b7f5061757361626c653a206e6f7420706175736564000000000000000000000000600082015250565b6000614b3c601483612f57565b9150614b4782614b06565b602082019050919050565b60006020820190508181036000830152614b6b81614b2f565b9050919050565b7f4e487b7100000000000000000000000000000000000000000000000000000000600052602160045260246000fd5b7f45434453413a20696e76616c6964207369676e61747572650000000000000000600082015250565b6000614bd7601883612f57565b9150614be282614ba1565b602082019050919050565b60006020820190508181036000830152614c0681614bca565b9050919050565b7f45434453413a20696e76616c6964207369676e6174757265206c656e67746800600082015250565b6000614c43601f83612f57565b9150614c4e82614c0d565b602082019050919050565b60006020820190508181036000830152614c7281614c36565b9050919050565b7f45434453413a20696e76616c6964207369676e6174757265202773272076616c60008201527f7565000000000000000000000000000000000000000000000000000000000000602082015250565b6000614cd5602283612f57565b9150614ce082614c79565b604082019050919050565b60006020820190508181036000830152614d0481614cc8565b9050919050565b7f45434453413a20696e76616c6964207369676e6174757265202776272076616c60008201527f7565000000000000000000000000000000000000000000000000000000000000602082015250565b6000614d67602283612f57565b9150614d7282614d0b565b604082019050919050565b60006020820190508181036000830152614d9681614d5a565b9050919050565b7f5061757361626c653a2070617573656400000000000000000000000000000000600082015250565b6000614dd3601083612f57565b9150614dde82614d9d565b602082019050919050565b60006020820190508181036000830152614e0281614dc6565b9050919050565b600082825260208201905092915050565b6000614e2582613983565b614e2f8185614e09565b9350614e3f818560208601612f68565b614e4881612f92565b840191505092915050565b6000608082019050614e686000830187613093565b614e756020830186613093565b614e826040830185613129565b8181036060830152614e948184614e1a565b905095945050505050565b600081519050614eae81612ebd565b92915050565b600060208284031215614eca57614ec9612e87565b5b6000614ed884828501614e9f565b91505092915050565b614eea816131a6565b82525050565b600060ff82169050919050565b614f0681614ef0565b82525050565b6000608082019050614f216000830187614ee1565b614f2e6020830186614efd565b614f3b6040830185614ee1565b614f486060830184614ee1565b95945050505050565b7f4552433732313a206d696e7420746f20746865207a65726f2061646472657373600082015250565b6000614f87602083612f57565b9150614f9282614f51565b602082019050919050565b60006020820190508181036000830152614fb681614f7a565b9050919050565b7f4552433732313a20746f6b656e20616c7265616479206d696e74656400000000600082015250565b6000614ff3601c83612f57565b9150614ffe82614fbd565b602082019050919050565b6000602082019050818103600083015261502281614fe6565b9050919050565b7f4e487b7100000000000000000000000000000000000000000000000000000000600052603160045260246000fdfe4142434445464748494a4b4c4d4e4f505152535455565758595a6162636465666768696a6b6c6d6e6f707172737475767778797a303132333435363738392b2fa26469706673582212203a76cf9464950d78a193fdfa3bff0de53524ce856d47faa16f2f4e72db8194da64736f6c63430008100033",
  "linkReferences": {},
  "deployedLinkReferences": {}
}